:100000000C947D030C949A030C949A030C949A0319
:100010000C949A030C949A030C949A030C949A03EC
:100020000C949A030C949A030C94AE240C9480259F
:100030000C94E61A0C949A030C949A030C949A0369
:100040000C949A030C949A030C949A030C949A03BC
:100050000C949A030C944E1B0C949A030C949A03E0
:100060000C949A030C949A030C949A030C949A039C
:100070000C949A030C949A030C949A030C949A038C
:100080000C949A030C949A030C949A030C949A037C
:100090000C949A030C949A030C949A030C949A036C
:1000A0000C949A030C949A030C949A03F203F503AC
:1000B000F803FB03FE030004030436073B07450770
:1000C00039073E074307410793089508A00897089A
:1000D00099089B089D089F08A208A408A608B108D3
:1000E000A808AA08AC08AE08B008B3084610461025
:1000F00078107810AF10CF10381296121111961296
:10010000BE11BE112F12961296129012CB11CB1166
:10011000CB11CB11CB11CB11CB11CB11CB11CB11FF
:10012000CB11CB11CB11CB11CB11CB11DC11E911C0
:10013000F011F711011221132113331333132A1372
:10014000331333133313211321132F1333133313A7
:100150002F13ED251426062714260627602683264E
:100160000627D926E8266572676F646F785F657A1F
:100170002F36363564633831366235633662343152
:100180006231366461204020302E362E3133382DD6
:10019000392D673330326537322D646972747900D6
:1001A0000000F0A129004B004E00010001000000FA
:1001B0001E00140004681D000100B6001F001A0094
:1001C00016641B0028002B4220000800076106006F
:1001D00050002C4121001500096219004F001350F6
:1001E000220017000A000500000011500100010064
:1001F0000000010000001250010001000000010099
:100200000000010023001C000B0011000000010091
:10021000240018000D7210005100010025000C0090
:100220000E71360052002A00260012000F743700AB
:1002300001002800270013003378380001004C002B
:1002400001000100010001000100000001000100A7
:1002500001000100010000003A00010000680100F7
:10026000010010503B0035002F64330001002900CD
:100270003C002D0030613400010001003D002E00E3
:1002800031623800010001003E0001000100010060
:1002900000000100010001000000010000001250F8
:1002A0000100010000000100000001003F0001000A
:1002B00001000100000001004000240021721E0026
:1002C000010001004100250022711F0001002A00E9
:1002D000420026002374200001004C00430001006E
:1002E00027780100010001004400450001000100E1
:1002F00001000000010001000100010001000000F8
:100300000100010001000100010010500100F40093
:10031000F200AA0001000100F600F000F100A800C0
:10032000010001000100F500F300A9000100010037
:100330000100010001000100000011500100010056
:1003400000000100000001000100010000000100A8
:100350000000010001000100010001000000010097
:100360000100AC0050004A00010001000100AE0095
:1003700051004B00010039000100AB0052004E005B
:1003800001000100010001004F004D0001000100CB
:10039000010001000100010001000000290001002E
:1003A00001000100010000001E0001000061E100E9
:1003B000010010501F00140004001D000100010086
:1003C00020001A0016001B0001002C00210008006C
:1003D00007000600010001002200150009001900B5
:1003E0000000010001000100000001000000010008
:1003F00001000100000001000000010023000100D5
:1004000001000100000001002400010001000100C2
:1004100001000100250001000100010001000100B0
:100420002600010001000100010001002700010079
:1004300001000100010001000100010001000100B4
:100440000100000000000000000000002A2B28002E
:100450000000000000000000000000000000002973
:10046000000000002C1E3420212224342627252EB3
:10047000362D3738271E1F202122232425263333EB
:10048000362E37381F0405060708090A0B0C0D0E17
:100490000F101112131415161718191A1B1C1D2FE3
:1004A0003130232D350405060708090A0B0C0D0E03
:1004B0000F101112131415161718191A1B1C1D2FC3
:1004C0003130354C0000000000000000000000004A
:1004D000000000000000000000000000000000001C
:1004E0000000000000010101010101000101010102
:1004F00000000000000000000000000000000100FB
:1005000001000101010101010101010101010101DC
:1005100001010101010101010101010101010100CC
:1005200000000101000000000000000000000000C9
:1005300000000000000000000000000000000001BA
:1005400001010100040330000000160345007200A1
:1005500067006F0044006F007800200045005A00DB
:10056000000016034500720067006F0044006F0032
:100570007800200045005A00000004030904090225
:100580006D00040100A0FA0904000001030101004C
:100590000921110100012240000705810308000A1A
:1005A00009040100010301020009211101000122D7
:1005B0004D000705820308000A0904020001030038
:1005C00000000921110100012236000705830308FC
:1005D000000A0904030001030000000921110100C1
:1005E00001223900070584032000011201100100D7
:1005F000000008EDFE0713010001020301050109D7
:1006000006A101050719E029E715002501950875E0
:1006100001810205081901290595057501910295C9
:1006200001750391010507190029F71500250195AA
:10063000F875018102C005010980A101850216013A
:10064000002603001A81002A83007510950181009D
:10065000C0050C0901A1018503160100269C021AA0
:1006600001002A9C02751095018100C00501090254
:10067000A1010901A100050919012905150025019C
:100680009505750181029501750381010501093008
:1006900009311581257F9502750881060938158174
:1006A000257F950175088106050C0A3802158125FC
:1006B0007F950175088106C0C005010906A10105E5
:1006C0000719E029E71500250195087501810295B4
:1006D0000175088101050819012905950575019124
:1006E000029501750391010507190029FF150026E0
:1006F000FF00950675088100C00011241FBECFEFD2
:10070000DAE0DEBFCDBF11E0A0E0B1E0E8E5FFE454
:1007100002C005900D92AA3DB107D9F723E0AAEDDA
:10072000B1E001C01D92A035B207E1F70E94D521CA
:100730000C94AA270C94000080B38C7080BB81B30A
:10074000836F81BB089584B1807F84B985B1807F38
:1007500085B98AB1837F8AB98BB1837F8BB93E9883
:1007600046980895CF93E82F873090F58091000147
:1007700090910101892B09F048C0CE2F64E670E00A
:1007800080E40E9449059093010180930001892B28
:10079000D1F464E670E082E10E94A005909301012B
:1007A00080930001892B79F481E090E001C0880FEB
:1007B000CA95EAF764E670E080950E94A0059093E0
:1007C00001018093000184E690E0CF910C94F5053F
:1007D00090E0FC013797E730F105B8F4EA5AFF4F93
:1007E0000C944E27209A289810C0219A29980DC061
:1007F000229A2A980AC0239A2B9807C0529A01C0BD
:10080000539A5B9802C03E9A4698CF910895CF9331
:10081000873008F041C08091000190910101892B3F
:1008200009F043C064E670E080E40E9449059093BB
:10083000010180930001892B11F0C0E027C064E61C
:1008400070E083E10E94A005909301018093000174
:10085000892B99F764E670E081E40E944905909342
:10086000010180930001892B41F784E690E00E940A
:10087000D00597FF05C09093010180930001DDCF63
:10088000C82FC095109201011092000184E690E0FB
:100890000E94F5058C2F0AC09FB18FB1807F86958D
:1008A00086959370892B809501C080E0CF91089543
:1008B000089508950C9459040E94870690E090933F
:1008C0000101809300010E94A3030E949C032BED71
:1008D00031E0EFE2F2E04EE04E0F119280E090E066
:1008E000D901A80FB91F1C92019686309105C1F756
:1008F0002A5F3F4F4E13F1CF0C94AE070E9487063C
:1009000090E090930101809300010E94A3030E9454
:100910009C03EFE2F2E08EE08E0F11928E13FDCF7A
:10092000089526E0829FC0011124FC01E552FE4F8C
:1009300020E030E080E041E050E09081992319F020
:100940009150908307C0BA01022E01C0660F0A942D
:10095000EAF7862B2F5F3F4F31962630310569F736
:10096000089596E0699FB001112420E030E090E006
:100970004FE0FC01022E02C0F595E7950A94E2F7DC
:10098000E0FF06C0F901E60FF71FE552FE4F408376
:100990002F5F3F4F2630310561F70895CF92DF92E8
:1009A000EF92FF920F931F93CF93DF9380910001FB
:1009B00090910101892B91F08091DA018F5F8093F2
:1009C000DA0181110BC00E94870690E0909301012B
:1009D00080930001892B11F40E9419068FE2C82E22
:1009E00082E0D82E96E3E92E92E0F92EC0E08C2F1B
:1009F0000E94B20307E00C0F802F0E94B2038C2FDD
:100A00000E949104182F8C2F0E940704F6019081F8
:100A1000D12FD095D9238123D82B6C2F8D2F8927C7
:100A20000E94B104F601D1936F01802F0E949104BE
:100A3000182F802F0E940704F7019081D12FD095A5
:100A4000D9238123D82B602F8D2F89270E94B104B1
:100A5000F701D1937F010E94A303CF5FC73039F61E
:100A60000E94BA0781E0DF91CF911F910F91FF9013
:100A7000EF90DF90CF900895E82FF0E0E15DFD4F1B
:100A80008081089508951092B9008CE08093B80099
:100A90000895EF92FF920F931F93CF93DF93182F38
:100AA000EB011092BC0084EA8093BC000E94181BEA
:100AB0007C019091BC0097FD0EC0CF3F8FEFD8070F
:100AC000C1F30E94181B8E199F098C179D0788F38C
:100AD0008EEF9FEF2EC09091B900987F983041F033
:100AE0009091B900987F903119F08FEF9FEF21C05E
:100AF0001093BB0084E88093BC000E94181B8C01FB
:100B00009091BC0097FD0CC0CF3F8FEFD807C1F389
:100B10000E94181B801B910B8C179D0788F3D8CF60
:100B20008091B900887F883111F08034F1F680E03F
:100B300090E0DF91CF911F910F91FF90EF9008957A
:100B40000F931F93CF93DF93EB018093BB0084E857
:100B50008093BC000E94181B8C019091BC0097FDF3
:100B60000EC0CF3F8FEFD807C1F30E94181B801B28
:100B7000910B8C179D0788F38EEF9FEF0CC020918F
:100B8000B900287F81E090E0283211F480E090E005
:100B9000919581959109DF91CF911F910F910895C2
:100BA0000F931F93CF93DF93EC0184E88093BC00F5
:100BB0000E94181B8C019091BC0097FD0EC0CF3F86
:100BC0008FEFD807C1F30E94181B801B910B8C1765
:100BD0009D0788F38EEF9FEF03C08091BB0090E0EC
:100BE000DF91CF911F910F9108950F931F93CF9392
:100BF000DF93EC0184E98093BC000E94181B8C01F8
:100C00009091BC0094FF0EC0CF3F8FEFD807C1F387
:100C10000E94181B801B910B8C179D0788F38EEF89
:100C20009FEF02C080E090E0DF91CF911F910F9184
:100C3000089556985E9825982D9826982E9827986E
:100C40002F988FEF90E09093890080938800909385
:100C50008B0080938A0090938D0080938C00259A5E
:100C60002D9A2FEF80E792E0215080409040E1F7ED
:100C700000C00000269A2E9A2FEF80E792E02150C4
:100C800080409040E1F700C00000279A2F9A2FEF94
:100C900080E792E0215080409040E1F700C00000E2
:100CA00025982D982FEF80E792E0215080409040CA
:100CB000E1F700C0000026982E982FEF80E792E021
:100CC000215080409040E1F700C0000027982F9805
:100CD00056985E9825982D9826982E9827982F98A4
:100CE000089589EA8093800089E0809381002498A8
:100CF0002C983F988AB18F7C8AB96E98479A8BB1AD
:100D000080638BB9769A0E9419060C94580480E28D
:100D100090E0909301018093000180913D02811148
:100D20000EC00E94430581E080933D022FEF83EDCA
:100D300090E3215080409040E1F700C0000064E65D
:100D400070E080E40E9449059093010180930001C6
:100D5000892B09F050C064E670E080E00E94A00595
:100D60009093010180930001892B09F044C064E64F
:100D700070E080E00E94A005909301018093000143
:100D8000892BC9F564E670E08FE30E94A00590937B
:100D9000010180930001892B71F584E690E00E94A7
:100DA000F50564E670E080E40E9449059093010136
:100DB00080930001892BF9F464E670E08CE00E94D6
:100DC000A0059093010180930001892BA1F464E6B2
:100DD00070E080E00E94A0059093010180930001E3
:100DE000892B49F464E670E08FE30E94A00590939C
:100DF00001018093000184E690E00E94F505809156
:100E000000010895611108C0FC018281882321F04E
:100E100086E691E00E94AB0780E090E008958E3D69
:100E20009C4541F4FB018281882329F00E94171A16
:100E300080E0089581E00895CF92DF92EF92FF92D3
:100E40006B017C010E944F1956985E9825982D9849
:100E500026982E9827982F9890E0FC013197E7303C
:100E6000F105A8F4E35AFF4F0C944E27259A2D9ACA
:100E70000EC0259A2D9A269A2E9A09C0259A2D9A47
:100E800004C0259A2D9A269A2E9A279A2F9AC7013E
:100E9000B601FF90EF90DF90CF90089581E0089524
:100EA0000C940F07CF93282F30E0F901EC5BFB4F38
:100EB000C491F901EC53FB4F2491222359F081EEA8
:100EC0000E94830E8C2F0E94830E8C2F0E949C0FF9
:100ED00081EE04C08C2F0E94830E8C2FCF910C9436
:100EE0009C0F0F931F93CF93DF93EC01062FFE010E
:100EF0008491882359F19E012F5F3F4F813041F447
:100F0000E901F9011491812F0E94830E812F0DC0F8
:100F1000823031F4E901F90184910E94830E0AC004
:100F2000833031F4E901F90184910E949C0F02C0E1
:100F30000E9452072196802F8823C9F2EFE9FFE033
:100F40003197F1F700C000008150F6CFDF91CF91CB
:100F50001F910F91089560E00C9471070E949F19F2
:100F6000811106C00E94AA19811102C00E94171A9D
:100F70000C9471060C945A04282F2F7041F0822F84
:100F800090E02A3010F44D9608950697089587E270
:100F900090E0089508950C94CA070C94CB07089527
:100FA0000E940F130E94CF072FEF84E39CE0215093
:100FB00080409040E1F700C000000C94741BFF9249
:100FC0000F931F93CF93DF938C01FC01C081D181DC
:100FD00080916A02811113C08281882349F0CE0179
:100FE0000E944218F82E682FCE010E94E51704C017
:100FF000CE010E941518F82EBE018F2D04C0CE011F
:101000000E944218BE010E946A09EC01B8010E94C8
:101010005007882309F456C1B801CE010E94D30BB2
:10102000882309F44FC1C631FCE5DF0739F50E947A
:101030001319282FF8018281409102015091030178
:10104000882379F02A7A91E009F490E090933E02A7
:10105000911102C069E201C065E3CA010E94751ADC
:101060000AC080913E02811102C069E201C065E3BD
:10107000CA010E94801A0E94E01824C1C7318CE581
:10108000D80708F080C0C130ECE5DE0759F4F8015C
:101090008281882309F416C18091090381608093BD
:1010A000090310C1C230FCE5DF0758F4C115DC4567
:1010B00061F4F8018281882309F404C10E94D007F9
:1010C00001C1C531ECE5DE0768F081E080934302A1
:1010D00080934402C801DF91CF911F910F91FF903F
:1010E0000C944E07F80182818823A1F30E949F1976
:1010F000811102C00E94171A0E94BC1990E09093BF
:10110000420380934103FE01E350FC45E231F105C7
:1011100030F4EC59FF4F809141030C944E2780919D
:101120004103816027C0826025C0846023C0806144
:1011300021C080621FC080641DC080681BC08460A5
:10114000886018C08E7F16C08D7F14C08B7F12C040
:101150008F7E10C08F7D0EC08F7B0CC08F770AC032
:101160008B7F877F07C087FB222720F991E092279A
:1011700090FB87F980934103809141030E94C0193D
:101180000E940F139FC0C83DFCE5DF0759F5F80129
:101190008281882361F0109244020E94181B909370
:1011A00042028093410280E20E9404108BC0809131
:1011B0004402882321F080E20E940B1083C08091BA
:1011C0004102909142020E94241B883C910598F7AD
:1011D00080E20E940B1088E20E94830E88E20E9447
:1011E0009C0F70C0C93D8CE5D80708F056C0C63DBD
:1011F000ECE5DE0761F5F8018281882351F0109259
:1012000043020E94181B9093400280933F0282E0A9
:10121000CBCF0E94131985FF05C081E08093430264
:10122000809344028091430281110FC080913F025C
:10123000909140020E94241B883C910530F486E284
:101240000E94830E86E20E949C0F82E0B5CFC73DCC
:10125000DC4509F03ACFF801828181119CCF0E94D0
:10126000131981FF05C081E08093430280934402FB
:101270008091440281119FCF80914102909142025E
:101280000E94241B883C910508F095CF87E20E94BC
:10129000830E87E20E949C0F8ECFCB3D8CE5D80752
:1012A00031F4F8018281882369F080E009C0CC3DE7
:1012B000DC4509F00ACFF8018281882319F082E029
:1012C0000E94712280E0DF91CF911F910F91FF90DA
:1012D0000895089596E0799FF001112494E5899F7F
:1012E000E00DF11D1124E60FF11DEE0FFF1FEC556F
:1012F000FE4F859194910895880F991FFC01E05647
:10130000FE4F859194910895CF93DF930E946A09CF
:101310000E94330BEC01811520E59207F0F5811551
:1013200030E4930708F021C1883E910500F5803E26
:10133000910508F094C1883A910570F4853A9105B9
:1013400008F0A3C08130910509F489C108F440C1B7
:10135000049708F084C13CC18D3B910508F4A0C0FE
:10136000803C910508F434C1805C9109F0C081157E
:10137000904258F4C11581E0D80708F070C1C03F11
:10138000D10508F425C1D0656AC1C11590E3D9071C
:1013900008F0E1C0CE019F70DAC0811525E5920703
:1013A00008F043C0811534E5930708F0F5C08115B6
:1013B00042E5940708F5C11581E5D80708F0D8C0C3
:1013C0002C2F237081E090E002C0880F991F2A958E
:1013D000E2F79C689E0174E0369527957A95E1F7CF
:1013E0002370922BCF70C695C69540E2C49FE00152
:1013F0001124C82BD92B33C1869586959E01237065
:101400003327C115D34508F0B8C040E2849FC0011E
:101410001124C1E0D0E002C0CC0FDD1F2A95E2F715
:101420008C2B9D2BEC01DC681AC181152AE59207F3
:1014300098F4811539E5930708F0B9C081159645F0
:1014400008F4AFC0C11588E5D80708F4C1C0DC2F87
:10145000CC27C06FD06A03C1C1159BE5D90708F43A
:10146000B7C0C1152CE5D20708F4AFC0CE01905625
:101470008115904208F0ACC08D2F8F710E94B00B87
:10148000DD27D0628F71D82BEAC0853A910509F427
:10149000A2C0863A910509F0A1C0C2E8D0E4DFC03D
:1014A000883A910509F49DC0893A910509F49CC0D8
:1014B0008A3A910509F49BC08B3A910509F49AC0C8
:1014C0008C3A910509F499C08B3B910509F498C0B9
:1014D0008C3B910509F497C08D3A910509F496C0AB
:1014E000803B910509F495C08E3A910509F494C0AA
:1014F0008F3A910509F493C0813B910509F492C09C
:10150000823B910509F491C0833B910509F490C099
:10151000843B910509F48FC0853B910509F48EC089
:10152000863B910509F48DC0873B910509F48CC079
:10153000883B910509F48BC0893B910509F48AC069
:101540008A3B910509F489C0C0E0D4E488C00E94B8
:101550007C09EC0184C0CE019927D3FF03C0EC01C4
:10156000D86C7DC0EC01D06C7AC0DF70D06A77C0D7
:10157000DC2FCC27C16FD06A72C040E2849FC001CB
:101580001124C1E0D0E002C0CC0FDD1F2A95E2F7A4
:10159000C82BD92BDA6863C0D82FCC27C46FD06A88
:1015A0005EC0CF71DD27DC2FCC27D06258C08F7092
:1015B000806E90E0906A24E0D695C7952A95E1F771
:1015C000CF709C013C2BE9014AC0DD27D06647C0A3
:1015D000C0E0D0E044C0C1E8D0E441C0C3E8D0E4FA
:1015E0003EC0C2EED4E43BC0C9EED4E438C0CAEE7B
:1015F000D4E435C0C5EBD4E432C0C6EBD4E42FC08C
:10160000C3EBD4E42CC0C4EBD4E429C0C7EBD4E4CE
:1016100026C0CCECD4E423C0CDECD4E420C0C3E895
:10162000D5E41DC0CAE8D5E41AC0C2E9D5E417C0A4
:10163000C4E9D5E414C0C1E2D6E411C0C3E2D6E4E3
:101640000EC0C4E2D6E40BC0C5E2D6E408C0C6E2D0
:10165000D6E405C0C7E2D6E402C0CAE2D6E4CE01B1
:10166000DF91CF9108958238910549F1B0F481332B
:10167000910509F458C048F48932910509F44EC027
:101680008A32910509F454C008958533910509F40F
:1016900040C08933910599F00895833E910529F161
:1016A00038F4803E910591F0823E9105A1F00895B5
:1016B000863E9105F9F0873E910531F1089520911C
:1016C000410320FD3AC021FD38C0089580914103B7
:1016D00080FD35C032C08091410382FF32C08091CD
:1016E000410384FD30C083EE39C08091410382FD07
:1016F00028C0F5CF8091410383FF27C0809141032B
:1017000084FD21C087EE2AC08091410383FD1DC066
:10171000F5CF8091410385FD1AC01BC08091410324
:1017200085FD17C014C08091410386FD14C015C00B
:101730008091410386FD11C00EC080EE0FC089E389
:101740000DC082EE0BC080E009C086EE07C089E2C2
:1017500005C085E303C08AE201C081E390E00895FB
:101760009091410392FF0DC0282F2871283019F461
:10177000877F846006C0282F2471243011F48B7F6A
:10178000886093FF0DC0282F2871283119F4877EB7
:10179000846106C0282F2471243111F48B7E886166
:1017A00094FD877E0895CF93DF93813020E89207E0
:1017B000D0F0FB0122812223B1F0EC01809145029F
:1017C000811109C08CE090E00E9468270E94F70B0D
:1017D00081E0809345020E94FE0BCE019F770E941C
:1017E000C60C0E947A0C81E0DF91CF91089580931E
:1017F0004602682F8CE090E00C947627E09102017D
:10180000F0910301808180933A0381FF03C081EE50
:101810000E949C0F80913A0385FF03C085EE0E94D1
:101820009C0F80913A0380FF03C080EE0E949C0FC2
:1018300080913A0384FF03C084EE0E949C0F809144
:101840003A0382FF03C082EE0E949C0F80913A030C
:1018500086FF03C086EE0E949C0F80913A0383FFAF
:1018600003C083EE0E949C0F80913A0387FF03C060
:1018700087EE0E949C0F80914602823001F1A8F40D
:101880008823C9F0813079F580EE0E94830E81EEC5
:101890000E94830E88E10E94830E88E10E949C0FC3
:1018A00081EE0E949C0F80EE1CC0843081F0853058
:1018B000D1F486EE01C082EE0E94830E14C082EE47
:1018C0000E94830E87E50E94830E87E50AC086EE9C
:1018D0000E94830E86EE0E949C0F88E10E94830E78
:1018E00088E10E949C0F8FE39CE90197F1F700C00B
:1018F0000000089580914602813049F030F0823036
:1019000021F0853051F486EE06C082EE04C08CE2F0
:101910000E94830E8CE20E949C0F80913A0381FF0B
:1019200003C081EE0E94830E80913A0385FF03C0BD
:1019300085EE0E94830E80913A0380FF03C080EE03
:101940000E94830E80913A0384FF03C084EE0E94BC
:10195000830E80913A0382FF03C082EE0E94830EC1
:1019600080913A0386FF03C086EE0E94830E809129
:101970003A0383FF03C083EE0E94830E80913A03F3
:1019800087FF03C087EE0C94830E0895EF92FF92B9
:101990001F93CF93DF937C01CCE0D0E097010C2E16
:1019A00002C0369527950A94E2F7122F1F70812FF7
:1019B0000E94BC070E94830E812F0E94BC070E94D8
:1019C0009C0F2497CC3F8FEFD80741F7DF91CF9141
:1019D0001F91FF90EF90089590934C0280934B02DB
:1019E0000895E0914B02F0914C02309721F0019064
:1019F000F081E02D099480E00895E0914B02F09190
:101A00004C02309721F00280F381E02D0994089573
:101A1000E0914B02F0914C02309721F00480F58167
:101A2000E02D099408952091490230914A028217CD
:101A3000930771F090934A0280934902E0914B0220
:101A4000F0914C02309721F00680F781E02D099447
:101A5000089520914702309148028217930771F050
:101A60009093480280934702E0914B02F0914C0220
:101A7000309721F00084F185E02D099408950895B0
:101A80000C943F0D81E008950E940F1B85B780687C
:101A900085BF85B7806885BF0E945C040C94A61B37
:101AA000CF92DF92EF92FF920F931F93CF93DF932A
:101AB000CDB7DEB72B970FB6F894DEBF0FBECDBF04
:101AC0000E94CE040E94420D811111C08FEF8983C4
:101AD0008A831B820E94181B8160782F9D838C83D0
:101AE00049815A816B818D810E94340E56C08EE4EB
:101AF000C82E82E0D82E00E010E0E02E802F0E9459
:101B00003C05F60141916F01F42EF82631F40F5F88
:101B10001F4F0E30110589F7D9CF9091090391FF1E
:101B200004C08B870E9442058B8520E030E04F2D5A
:101B300050E0922FBA01022E02C0759567950A9463
:101B4000E2F760FF24C02E83EF8221E030E06901DC
:101B500002C0CC0CDD1C9A95E2F790E08C219D210F
:101B6000892B09F420E028870E94181B8160782FB8
:101B70009A8789874E815F8168858A850E94340EA5
:101B8000F801E25BFD4F8081C826C08206C02F5F4E
:101B90003F4F2630310569F6BACF0E94391D1091AA
:101BA0004D020E94F10C1817A1F00E94F10C8093D5
:101BB0004D022B960FB6F894DEBF0FBECDBFDF915E
:101BC000CF911F910F91FF90EF90DF90CF900C94E9
:101BD000CD072B960FB6F894DEBF0FBECDBFDF91B9
:101BE000CF911F910F91FF90EF90DF90CF900895CC
:101BF000DC0111962C9111978C91682F70E041E0D7
:101C000050E001C0440F8A95EAF712968C91129722
:101C100030E0882329F080916C028823E9F006C027
:101C2000F901E45AFD4F90819423B1F086E0829F40
:101C3000F001839FF00D1124E60FF71FEE0FFF1F39
:101C4000EC5EFE4F808191818D939C93F901E45A63
:101C5000FD4F8081482B06C0F901E45AFD4F4095A5
:101C60008081482340830895CF93DF93CDB7DEB7BB
:101C70002B970FB6F894DEBF0FBECDBF942F4F83C6
:101C8000252F588769877A878B874A855B85452BFF
:101C900021F02F3F09F59F3FF9F4DE01119686E010
:101CA000FD0111928A95E9F785E0FE0137960190D2
:101CB0000D928A95E1F749815A816B817C818D81F2
:101CC0009E810E94B6152B960FB6F894DEBF0FBE0C
:101CD000CDBFDF91CF910895CE0107960E94F80DF8
:101CE000DCCFFC01808191810E94811892959F70C8
:101CF000963041F480916C0291E0892780936C02C8
:101D000090936B020895CF93DF931F92CDB7DEB708
:101D1000882309F40DC1682F8238C1F40E94F10CA8
:101D200081FD06C169E380910201909103010E9447
:101D3000751A0E94E0182FEF81EE94E02150804048
:101D40009040E1F700C0000069E319C0833811F545
:101D50000E94F10C80FDECC063E58091020190913E
:101D600003010E94751A0E94E0182FEF81EE94E0A3
:101D7000215080409040E1F700C0000063E5809171
:101D80000201909103010E94801A0F90DF91CF9180
:101D90000C94E0188438C1F40E94F10C82FDC8C094
:101DA00067E480910201909103010E94751A0E94DC
:101DB000E0182FEF81EE94E0215080409040E1F751
:101DC00000C0000067E4DBCF8CEF860F813A70F42F
:101DD000862F69830E946F1F69818111A9C080913C
:101DE0000201909103010E94751ACFCF80E2860F05
:101DF000883048F4677081E001C0880F6A95EAF77F
:101E00000E941619C2CF8BE5860F833088F4653A9D
:101E100029F0663A31F083E890E005C081E890E06F
:101E200002C082E890E00F90DF91CF910C94130DE7
:101E300088E5860F853108F071C0683A61F1693A2A
:101E400069F16A3A71F16B3A79F16C3A81F16B3B65
:101E500089F16C3B91F16D3A99F1603BA1F16E3AD9
:101E6000A9F16F3AB1F1613BB9F1623BC1F1633B5A
:101E7000C9F1643BD1F1653BD9F1663BE1F1673BC8
:101E8000E9F1683BF1F1693BF9F16A3B09F43FC0C4
:101E900080E090E03EC082EE90E03BC089EE90E0B2
:101EA00038C08AEE90E035C085EB90E032C086EB1A
:101EB00090E02FC083EB90E02CC084EB90E029C031
:101EC00087EB90E026C08CEC90E023C08DEC90E096
:101ED00020C083E891E01DC08AE891E01AC082E941
:101EE00091E017C084E991E014C081E292E011C052
:101EF00083E292E00EC084E292E00BC085E292E0C1
:101F000008C086E292E005C087E292E002C08AE261
:101F100092E00F90DF91CF910C94290D603F40F03B
:101F2000862F0E94411C0F90DF91CF910C942E1DA3
:101F30000F90DF91CF910895882309F464C082380F
:101F400079F40E94F10C81FF5EC069E38091020187
:101F5000909103010E94751A0E94E01869E310C075
:101F60008338B1F40E94F10C80FF4DC063E580918D
:101F70000201909103010E94751A0E94E01863E526
:101F800080910201909103010E94801A0C94E01844
:101F9000843879F40E94F10C82FF35C067E48091A7
:101FA0000201909103010E94751A0E94E01867E4F3
:101FB000E7CF9CEF980F913A10F4682FE1CF90E2B1
:101FC000980F983050F4877091E001C0990F8A956E
:101FD000EAF7892F0E941C19D9CF9BE5980F9330FF
:101FE00020F480E090E00C94130D98E5980F953163
:101FF00020F480E090E00C94290D803F20F00E94B6
:10200000A91C0C942E1D0895882321F00E941619F6
:102010000C94E0180895882321F00E941C190C9458
:10202000E01808958F929F92AF92BF92DF92EF9245
:10203000FF920F931F93CF93DF937C01D62FC72F6F
:10204000FC01058102950F70128111110E94331954
:102050000E94D918882379F0112369F080E28D0F4E
:10206000883048F082E00E94C2180E94D91891E09E
:10207000D82ED92601C0D12CAC2EA2948FE0A82254
:10208000B12CF501EA58FF4F0C944E278C2F807F1E
:10209000CF70882311F0C295C07F112399F0CC2313
:1020A00009F4C8C180E28D0F883010F0D11104C04E
:1020B0008C2F0E94161903C08C2F0E9426190E9493
:1020C000E018B8C18D2F0E949C0FCC2309F42EC2BA
:1020D00080E28D0F883010F0D11104C08C2F0E9447
:1020E0001C1903C08C2F0E942C190E94E0181EC2DC
:1020F0008C2F807FCF70803211F0C295C07FDD239E
:1021000019F0D130C9F021C0112371F0002341F042
:10211000013031F40E944C198C2B0E94461906C2E2
:102120000E944C198C2B3FC1002319F0013009F497
:10213000FDC10E94491911C0112321F0023008F09D
:10214000F5C107C00111F2C108C0112321F001112E
:1021500071C18C2F28C101117EC18C2F2AC18C2FF7
:1021600086958695837090E0009719F0019761F04D
:10217000DDC1112321F08D2F9C2F937002C080E0D0
:1021800090E00E94130DE2C1112321F08D2F9C2FAE
:10219000937002C080E090E00E94290DD7C1112306
:1021A000F9F0D53F51F0D63F71F0D43FA9F48091BA
:1021B0003B0390913C0381600BC080913B03909165
:1021C0003C03826005C080913B0390913C03846096
:1021D00090933C0380933B038D2F0E94411C1EC0B3
:1021E000D53F51F0D63F71F0D43FA9F480913B0325
:1021F00090913C038E7F0BC080913B0390913C03F8
:102200008D7F05C080913B0390913C038B7F909321
:102210003C0380933B038D2F0E94A91C0E942E1D1E
:1022200095C18C2F837009F050C011118BC18D2F77
:10223000829586958770880F880F9D2F9F70892EB5
:10224000912CA12CB12C082E04C0880C991CAA1C1E
:10225000BB1C0A94D2F7D4FF14C00FE010E020E0BA
:1022600030E0B901A80104C0440F551F661F771F55
:102270008A95D2F7CB01BA016095709580959095BB
:1022800003C060E070E0CB01C695C695C370D0E096
:10229000C230D10561F0C330D10581F068297929B8
:1022A0008A299B29219771F00E94FB164BC168294E
:1022B00079298A299B290E940D1744C10E94FB1687
:1022C000C501B4010E94E9163DC1112319F08C2FFC
:1022D000817001C08695882309F434C18D2F8295C1
:1022E00086958770880F880F9D2F9F70892E912C5F
:1022F000A12CB12C082E04C0880C991CAA1CBB1C54
:102300000A94D2F7D4FF14C00FE010E020E030E0D0
:10231000B901A80104C0440F551F661F771F8A9595
:10232000D2F7CB01BA01609570958095909503C066
:1023300060E070E0CB01C695C695C3704C2F50E0AD
:102340004230510569F04330510589F068297929F7
:102350008A299B294130510571F00E94C017F2C0B3
:10236000682979298A299B290E94D217EBC00E94EB
:10237000C017C501B4010E94AE17E4C08D2F90E0D4
:10238000FC01E05EF109E531F10508F04FC0EA57C4
:10239000FF4F0C944E27DF708C2F8F71112331F07B
:1023A0000E9447178D2F0E940410C0C00E9468171A
:1023B0008D2F0E940B10BAC0112339F00111B6C045
:1023C0008C2F8F710E948D17B1C0023008F0AEC003
:1023D000F7CF112339F08C2F8F710E944717A6C0B9
:1023E0001123C9F38C2F8F710E9468179FC011238E
:1023F00029F08C2F8F710E94321798C00E942D17E0
:1024000095C0112349F0CF718C2F0E94471763E0CC
:102410008C2F0E94B9188AC081E00E94C218023035
:1024200008F484C082E00E94C21880C0112331F0F9
:10243000002389F28D2F0E94830E78C0002391F231
:10244000D93349F45FEF67EE73E05150604070405C
:10245000E1F700C000008D2F0E949C0F67C04C2F39
:102460004F706D2FC7010E9402070E945A166EC05E
:10247000D23FB1F028F4D03F49F0D13FF9F028C065
:10248000D43FB9F058F0D53F71F022C0112309F4C0
:1024900047C090916C0281E0892708C081E018272D
:1024A00010936C023DC011113BC081E080936C021F
:1024B00037C0111135C010926C0232C0112329F0BF
:1024C00080916B02882329F329C0002311F328C0CF
:1024D00080916B020023C1F0882341F090916C023F
:1024E00081E0892780936C0210926B028D2F11235B
:1024F00019F00E94830E14C00E949C0F86E0F70121
:1025000011928A95E9F70CC0882351F0111108C087
:1025100090916C0281E0892780936C0210926B028B
:102520004C2F4F706D2FC7010E946909F8E0AF165C
:10253000B10441F05CF04AE0A41AB10852E0A516DB
:10254000B10420F40E94F10C0E94CD07DD20E1F0DF
:102550000E94B51880FD18C0F70112820E94AF18C2
:102560000E944717C7010E94D0120E94AF18DF9146
:10257000CF911F910F91FF90EF90DF90BF90AF90A0
:102580009F908F900C946817DF91CF911F910F91BE
:10259000FF90EF90DF90BF90AF909F908F90089545
:1025A0000F931F93CF93DF93EC01888199812B8147
:1025B0003C81232BB9F09F3F11F48F3F99F0CE015E
:1025C0000E94DF07882371F0688179818A810E94E7
:1025D0008C188C010E94E4170E94E616B801CE0107
:1025E0000E941210DF91CF911F910F9108950E94C8
:1025F00033190E94431980910201909103010E94B6
:102600008B1A0E94E0180E94D41D0E942E1D80E0AB
:1026100090E00E94130D80E090E00C94290D0E9440
:1026200023190C94F7120E948118E92FE295EF709C
:10263000F0E03297EE30F105B0F4E556FF4F0C9420
:102640004E27803F91F018F4803E68F40EC0843F1E
:1026500051F40BC0803E48F0813F29F406C093FB43
:10266000882780F9089580E0089581E00895CF9348
:10267000DF9300D000D01F92CDB7DEB70F900F9040
:102680000F900F900F90DF91CF910895CF93DF932C
:1026900000D000D000D0CDB7DEB726960FB6F894A4
:1026A000DEBF0FBECDBFDF91CF9108951F93CF93B3
:1026B000DF93C0916D0216E080916E02C81799F009
:1026C000D0E01C9FF0011D9FF00D1124E159FD4F3A
:1026D0004081518162817381848195810E9446137A
:1026E0002196C770E9CFDF91CF911F910895409156
:1026F0009F025091A0026091A1027091A20280916C
:10270000A3029091A4020C9446138091A402829596
:102710008F7009F054C08091A102882309F44FC042
:1027200080916D02A0916E0260919F027091A00253
:102730004091A2025091A302B6E08A1709F43FC06B
:1027400090E041155105C1F17F3F11F46F3FA1F1B8
:10275000B89FF001B99FF00D1124E159FD4F21817F
:1027600072132AC02081621327C02281211124C044
:10277000238134812417350710F421503109241B9B
:10278000350B283C3105C0F42091A4022F70206144
:102790002093A40226E0289FF001299FF00D112428
:1027A000EC58FD4F80818F70806180838FE992E0CB
:1027B0000E94D0120C94561301968770BECF0895D4
:1027C000CF92DF92EF92FF920F931F93CF93DF93FD
:1027D000CDB7DEB762970FB6F894DEBF0FBECDBFA0
:1027E0008C0185E0F801DE011D9601900D928A951D
:1027F000E1F7D8014C9111965C91119712966C916A
:1028000012971396CD90DC90149730919F0270919F
:10281000A0028091A2029091A302009709F46BC1DB
:102820007F3F19F43F3F09F466C1E090A102EE201A
:1028300009F4C0C02091A402C816D90628F0F601F8
:10284000E81BF90BCF0104C0809590958C0D9D1D60
:10285000FF24F394883C910578F0F12C207F09F057
:10286000C6C07C2DD98AC88A89890E9437138FE90E
:1028700092E00E94D012B1C0822F807F09F046C042
:10288000751314C0341312C0611110C02F70206171
:102890002093A4020E9477138FE992E00E94D01245
:1028A0008091A402D80115968C932EC0CD2819F1E1
:1028B0005F3F11F44F3FF9F0F62E61111CC080917B
:1028C0006D0220916E0236E0821709F45AC090E042
:1028D000389FF001399FF00D1124E159FD4F7181AE
:1028E000571306C07081471303C07281711103C072
:1028F00001968770E9CFF62E662309F427C18091EF
:10290000A40281608093A402F12C20C1751308C039
:10291000341306C0611104C08091A402D801C3C061
:102920004D875E878D859E856A8B0E9413136A8909
:102930008823E1F16623D1F12091A402822F8295B0
:102940008F7090E0029774F080919F029091A002A6
:1029500098878F831986DB86CA862C87CE010796D7
:102960000E94D01286E0F801AFE9B2E001900D922A
:102970008A95E1F70E9485130E947713FF24F39450
:10298000E5C04D875E878D859E850E948118292F21
:1029900022952F7030E0223031050CF0CBC09F70B3
:1029A00009F0C5C0805E883008F4D0C0C8010E941C
:1029B000D012E4CFC816D90608F453C0F601E81BBC
:1029C000F90BCF01883C910508F450C0F12C7C2D07
:1029D000D98AC88A89890E943713EFE9F2E086E034
:1029E000DF011D928A95E9F70E947713AFC0751336
:1029F00014C0341312C0611110C08091A402F801F8
:102A00008583C8010E94D01286E0EFE9F2E0DF0181
:102A10001D928A95E9F7FE2C99C04D875E878D85BA
:102A20009E856A8B0E9413136A89882309F4BECF9E
:102A3000662309F4BBCF2091A402822F82958F7068
:102A400090E002970CF48ECF80919F029091A002AB
:102A50009A8389831B82DD82CC822E83CE010196EC
:102A60007FCF809590958C0D9D1DACCFF62E662363
:102A700009F49CCF75132EC034132CC02091A402EE
:102A800020FD1FC0822F82958F70D9F0D801159636
:102A90002C9315978F3049F08F5F982F9295907FE8
:102AA000822F8F70892B15968C93C8010E94D012AB
:102AB00086E0F801AFE9B2E001900D928A95E1F766
:102AC00093CF86E0F801AFE9B2E001900D928A95CC
:102AD000E1F73CC04D875E878D859E850E9413136C
:102AE000811140CF8091A40281608093A402C8012B
:102AF0000E94D0122BC0662309F458CF4D875E8701
:102B00008D859E850E941313F82E882309F44ECFDD
:102B100086E0F801AFE9B2E001900D928A95E1F705
:102B20008FE992E00E94710E0E9485135DCF8111A2
:102B300039CF0CC0243031050CF038CF9F7009F428
:102B400031CFF8019581907F09F02CCF8F2D6296BF
:102B50000FB6F894DEBF0FBECDBFDF91CF911F91AE
:102B60000F91FF90EF90DF90CF9008951F93CF9338
:102B7000DF93CDB7DEB72C970FB6F894DEBF0FBE4C
:102B8000CDBF4F83588769877A878B879C87CE0113
:102B900007960E94E013882369F08F8198852A8523
:102BA0003B85232BF1F19F3F09F063C08F3F09F074
:102BB00060C037C086E0FE013796DE0111960190B5
:102BC0000D928A95E1F76F817885EA85FB853097CC
:102BD00041F17F3F11F46F3F21F120916E0230E00F
:102BE000C90101968770992740916D0250E08417C2
:102BF000950709F447C069837A83FD83EC8396E0E7
:102C0000929FD001939FB00D1124A159BD4FFE0199
:102C1000319601900D929A95E1F780936E020E9491
:102C2000561316E080916D0290916E028917C1F1E2
:102C3000189FC001112481599D4F0E94E0138823E1
:102C400079F1E0916D021E9FF0011124E159FD4FD1
:102C50004081518162817381848195810E944613F4
:102C600080916D0290E001968770992780936D02A4
:102C7000D9CF4F81588569857A858B859C850E943F
:102C80004613CFCF0E940F1310926E0210926D0266
:102C9000EFE9F2E086E0DF011D928A95E9F7C1CF06
:102CA0002C960FB6F894DEBF0FBECDBFDF91CF914B
:102CB0001F910895EF92FF920F931F93CF93DF938D
:102CC0008C01892B09F46CC0F12CEE24E394E8010B
:102CD0002196F8018491843740F4843008F051C083
:102CE000813081F0823019F15BC0853709F444C02E
:102CF000A8F19CE7980F903708F052C08F770E9498
:102D00009C0F41C00E5F1F4FFE01C49180E28C0FEB
:102D1000883048F4C7708E2D01C0880FCA95EAF735
:102D20000E94361914C08C2F0E94830E2DC00E5F96
:102D30001F4FFE01C49180E28C0F883058F4C77099
:102D40008E2D01C0880FCA95EAF70E943C190E9497
:102D5000E0181AC08C2F0E949C0F16C00E5F1F4FE8
:102D6000FE01C491CC2381F08FE99FE00197F1F738
:102D700000C00000C150F6CF0E5F1F4FFE01F4905F
:102D800003C00E94830E8E018F2D882309F49FCFEC
:102D9000EFE9FFE03197F1F700C000008150F5CF77
:102DA000DF91CF911F910F91FF90EF9008950895BB
:102DB0000C94D7160E94D8166093E0027093E1023B
:102DC0008093E2029093E3020C94F71208950C941E
:102DD000DA160F931F930091E0021091E102209107
:102DE000E2023091E302602B712B822B932B1F9117
:102DF0000F910C94DA160F931F930091E00210913B
:102E0000E1022091E2023091E302602371238223E8
:102E100093231F910F910C94DA160F931F93009137
:102E2000E0021091E1022091E2023091E30260277A
:102E30007127822793271F910F910C94DA160C9417
:102E40001C070E941F176093DC027093DD028093C1
:102E5000DE029093DF020C94F71260E070E0CB0189
:102E60000C9421170F931F9341E050E060E070E055
:102E70008A019B0104C0000F111F221F331F8A9576
:102E8000D2F7C901B8011F910F910C9421170F932C
:102E90001F9341E050E060E070E004C0440F551F14
:102EA000661F771F8A95D2F78091DC029091DD0230
:102EB000A091DE02B091DF028A019B01082B192B41
:102EC0002A2B3B2BC901B8011F910F910C9421179C
:102ED0000F931F9341E050E060E070E004C0440FA6
:102EE000551F661F771F8A95D2F7409550956095BC
:102EF00070958091DC029091DD02A091DE02B0918C
:102F0000DF028A019B01082319232A233B23C901DD
:102F1000B8011F910F910C9421170F931F9341E05B
:102F200050E060E070E004C0440F551F661F771F3B
:102F30008A95D2F78091DC029091DD02A091DE02A9
:102F4000B091DF028A019B01082719272A273B2716
:102F5000C901B8011F910F910C9421170F931F9372
:102F60000091DC021091DD022091DE023091DF023F
:102F7000602B712B822B932B1F910F910C94211797
:102F80000F931F930091DC021091DD022091DE026D
:102F90003091DF0260237123822393231F910F91CD
:102FA0000C9421170F931F930091DC021091DD0206
:102FB0002091DE023091DF0260277127822793275C
:102FC0001F910F910C9421170895292F220F920F12
:102FD000990F890FA82FA695A695A695877051E001
:102FE00001C0550F8A95EAF785E0A89FD00111240A
:102FF00020E030E070E0F901EA0FFB1FEB55FD4FD8
:103000004081CB01022E02C0969587950A94E2F783
:1030100081709927819584278523842780832F5F5A
:103020003F4F2530310539F70895292F220F920F90
:10303000990F890F682F669566956695982F9770FA
:1030400085E0689FB001112440E050E080E0FA0183
:10305000E60FF71FEB55FD4F208130E0092E02C02F
:10306000369527950A94E2F721703327042E01C084
:10307000220F0A94EAF7822B4F5F5F4F45305105CC
:1030800031F70895CF92DF92EF92FF920F931F9343
:10309000CF93DF938C01C090E002D090E102E090EA
:1030A000E202F090E3028091DC029091DD02A091B7
:1030B000DE02B091DF02C82AD92AEA2AFB2ACFE130
:1030C000D0E0D701C6010C2E04C0B695A795979500
:1030D00087950A94D2F780FF06C0B8018C2F0E9412
:1030E0008409019721F4219760F780E001C08C2FBB
:1030F000DF91CF911F910F91FF90EF90DF90CF90D4
:103100000895CF93DF93EC010E944218BE010E9404
:103110008409DF91CF9108951F93CF93DF93EB0143
:1031200090916A02992321F0CB010E94811813C06B
:10313000882349F0CB010E944218182F682FCE0136
:103140000E94E51704C0CB010E941518182FBE017C
:10315000812F0E948409DF91CF911F910895809162
:10316000E40285958595859508958091E4028770A0
:10317000089598E0899F90011124262B2093E40262
:103180000C9447172091E402809582238093E402F7
:10319000982F977069F430E0482F082E000C550BDB
:1031A0002417350729F08595859585950C94681722
:1031B00008959091E402977081E009F480E0089509
:1031C000E0910201F0910301809108038083E09176
:1031D0000201F0910301908180910703892B808384
:1031E000E0910201F0910301908180910603892B07
:1031F00080838091E502882381F0E0910201F091C3
:1032000003019081892B80838091020190910301B9
:103210000E94191A81111092E50280910201909189
:1032200003010C94FD0C809108030895909108030C
:10323000892B809308030895809590910803892332
:10324000809308030895109208030895909107034E
:10325000892B809307030895809590910703892314
:103260008093070308951092070308959091060331
:10327000892B8093060308958095909106038923F6
:103280008093060308951092060308958093E50243
:1032900008951092E50208958091E5020895CF9275
:1032A000DF92EF92FF926C01EE24FF24C114D1044F
:1032B000E104F10421F0C701B60120E101C020E0E2
:1032C000C72ED82EE92EFF24C114D104E104F10445
:1032D00019F0285FC701B6016B017C0154E0F69438
:1032E000E794D794C7945A95D1F7C114D104E10457
:1032F000F10419F02C5FC701B6016B017C0142E0BB
:10330000F694E794D794C7944A95D1F7C114D104A1
:10331000E104F10419F02E5FC701B601DC01CB0115
:10332000B695A79597958795892B8A2B8B2B09F0B6
:103330002F5F822FFF90EF90DF90CF90089580E075
:1033400090E00E94702721E08D3E9E4F09F020E022
:10335000822F089580E090E00E94702721E001967E
:1033600009F020E0822F089582E090E00C94682715
:1033700083E090E00C94682784E090E00C94682748
:10338000682F84E090E00C947627AB01BC018FE0BD
:1033900090E00C948827AB01BC0183E190E00C9491
:1033A000882760E070E0CB010C94CB1960E070E0FE
:1033B000CB010E94C5190C94D1196DEE7EEF80E00F
:1033C00090E00E94942760E082E090E00E947627DF
:1033D00060E083E090E00E9476271092E002109275
:1033E000E1021092E2021092E30260E084E090E0D9
:1033F0000E94762760E085E090E00E94762760E0FA
:1034000086E090E00E9476276FEF87E090E00E94D0
:10341000762740E050E0BA0188E090E00E948827DB
:1034200060E08DE090E00E9476270C94D6190C9411
:10343000DD19FC0131969C01205E3F4F80E09191A7
:1034400091118F5FE217F307D1F708959C01FC01FA
:1034500032969FEF80E04191461789F09F3F19F423
:10346000411101C0982F8F5F8E31A9F79F3F39F02E
:10347000F901E90FF11D97FDFA956283089508950A
:10348000FC01329680962081261301C0108231966D
:10349000E817F907C1F70895262F26952695269552
:1034A0002F3168F4FC01E20FF11D677021E030E07C
:1034B00001C0220F6A95EAF78181282B21830895A4
:1034C000262F2695269526952F3170F4FC01E20FC4
:1034D000F11D677021E030E001C0220F6A95EAF724
:1034E000209581812823218308952091130122238F
:1034F00029F02091410327FD0C944C1A0C94261AB4
:1035000020911301222329F02091410327FD0C94DF
:10351000601A0C94401AFC01319680961192E817BB
:10352000F907E1F7089508950C94931A0E94941AEC
:1035300080914703843049F110920A0320E488E126
:1035400090E00FB6F894A895809360000FBE20938A
:10355000600080E00E94CD070E94941A83B7817FAB
:10356000846083BF83B7816083BF7894889583B775
:103570008E7F83BF0FB6F894A89580916000886114
:1035800080936000109260000FBE08950895CF935D
:103590000E947E040E94CE040E94C61AC0E08C2FB6
:1035A0000E943C05811104C0CF5FCE30C1F701C03D
:1035B00081E0CF91089508950C94DB1A0E940F13B7
:1035C0000E94F10C0E94CD070C94DC1A1F920F92FE
:1035D0000FB60F9211248F939F93AF93BF93809157
:1035E0000A03811113C080913D0390913E03A09185
:1035F0003F03B09140034196A11DB11D80933D034F
:1036000090933E03A0933F03B0934003BF91AF91CB
:103610009F918F910F900FBE0F901F90189582E091
:1036200084BD93E095BD9AEF97BD80936E00089599
:103630002FB7F89480913D0390913E03A0913F03F2
:10364000B09140032FBF0895CF92DF92EF92FF9287
:103650000F931F932FB7F89440913D0350913E0371
:1036600060913F03709140032FBF6A017B01EE24FC
:10367000FF248C0120E030E0C016D106E206F306FC
:1036800010F4415051099A01281B390BC9011F91AF
:103690000F91FF90EF90DF90CF90089578941F9254
:1036A0000F920FB60F9211248F939F93AF93BF93F6
:1036B00080913D0390913E03A0913F03B091400360
:1036C0000196A11DB11D80933D0390933E03A093ED
:1036D0003F03B0934003BF91AF919F918F910F90A3
:1036E0000FBE0F901F901895F89481E08093E00032
:1036F00080E28093D800E9ECF0E010828FE19EE454
:103700000197F1F700C000001DBA109268001CBCC0
:1037100010BE1FBA10927A0010926E0010926F00C5
:1037200010927100109272001082ECEBF0E01082A7
:1037300014B817B81AB81DB810BA108215B818B84E
:103740001BB81EB811BA0C94003F08950E949F192F
:10375000811102C00E94171A0E94B41980930903B4
:103760000E94BC1990E090934203809341030E9411
:10377000B819682F70E080E090E00C94E716809113
:103780000E0380FF0BC06091070185E0689FB001C8
:10379000112475956795759567952BC081FF09C0B4
:1037A0006091070185E0689FB001112475956795C8
:1037B00020C082FF07C06091070185E0689FB001CB
:1037C000112417C090910F039923D1F06091060145
:1037D000961788F72091070185E0289F9001112412
:1037E000929FA001939F500D112470E0CA010E9486
:1037F0003A276038710540F46115710539F002C04F
:1038000065E070E0862F08958FE7089581E00895C0
:1038100080910E0380FF08C06091050170E07595EE
:1038200067957595679521C081FF06C06091050178
:1038300070E07595679519C082FF04C0609105011D
:1038400070E010C090910F039923C1F060910401C2
:103850009617A0F780910501899FC001112470E09F
:103860000E943A276038710528F46115710521F02E
:10387000862F08958FE7089581E0089561E070E054
:10388000F4CF803F21F40E94BF1B819504C0813F8B
:1038900029F40E94BF1B809312030895823F21F4F4
:1038A0000E94BF1B819504C0833F29F40E94BF1B67
:1038B000809311030895893F19F40E94081C05C0E4
:1038C0008A3F31F40E94081C819580931303089568
:1038D0008B3F21F40E94081C819504C08C3F29F481
:1038E0000E94081C809314030895843F21F4809162
:1038F0001003816017C0853F21F48091100382601E
:1039000011C0863F21F48091100384600BC0873F73
:1039100021F480911003886005C0883F31F48091C4
:10392000100380618093100308958D3F21F48091EE
:103930000E0381600BC08E3F21F480910E038260E4
:1039400005C08F3F29F480910E03846080930E039D
:103950000895803F39F48091120387FF6CC0109264
:10396000120369C0813F29F4809112031816BCF339
:1039700062C090911103823F29F497FF5CC01092BE
:10398000110359C0833F19F41916CCF354C0893F71
:1039900041F48091130318160CF04DC010921303DC
:1039A0004AC08A3F29F48091130387FF44C0F6CFB1
:1039B0008B3F39F48091140387FF3DC010921403AC
:1039C0003AC08C3F29F4809114031816BCF333C01D
:1039D000843F21F4809110038E7F17C0853F21F42E
:1039E000809110038D7F11C0863F21F480911003D8
:1039F0008B7F0BC0873F21F480911003877F05C028
:103A0000883F31F4809110038F7E8093100313C0A0
:103A10008D3F21F480910E038E7F0BC08E3F21F4E9
:103A200080910E038D7F05C08F3F29F480910E0396
:103A30008B7F80930E038091110381110EC08091C2
:103A4000120381110AC080911303811106C0809175
:103A50001403811102C010920F03089580E193E0D6
:103A60000E94080D0E94181B90930C0380930B0377
:103A700008951F93CF93DF9380910B0390910C03D4
:103A80000E94241BAC0190910F03992321F02091F7
:103A9000080130E006C020910D038AE0289F9001C4
:103AA00011244217530708F47BC080911103C09181
:103AB0001203D091130310911403811107C0C11197
:103AC0006BC0D11169C0111167C06AC09F3F19F066
:103AD0009F5F90930F03181624F40E94BF1B8093DE
:103AE00011038091110387FF05C00E94BF1B8195C0
:103AF000809311031C1624F40E94BF1B80931203B1
:103B00008091120387FF05C00E94BF1B819580939F
:103B10001203309111033323E1F020911203222389
:103B2000C1F045EB3403C0011124892F990F990B83
:103B3000009709F481E08093110335EB2303C00162
:103B40001124892F990F990B009709F481E0809334
:103B500012031D1624F40E94081C80931303809105
:103B6000130387FF05C00E94081C819580931303EF
:103B7000111624F40E94081C8093140380911403EE
:103B800087FF05C00E94081C819580931403DF9174
:103B9000CF911F910C942E1D9F3F09F099CFA1CF7B
:103BA000DF91CF911F910895E0E1F3E085E0DF011F
:103BB0001D928A95E9F710920F0310920E03089553
:103BC000833081F128F4813059F08230D1F00895AA
:103BD000853009F449C0B8F1863009F456C008951B
:103BE00080910D03262F30E0280F311D2F3F310526
:103BF00024F4680F60930D0308958FEF80930D03F5
:103C0000089580910801262F30E0280F311D2F3FA5
:103C1000310524F4680F6093080108958FEF8093B5
:103C20000801089580910701262F30E0280F311DEB
:103C30002F3F310524F4680F6093070108958FEF3B
:103C400080930701089580910601262F30E0280F08
:103C5000311D2F3F310524F4680F6093060108954C
:103C60008FEF80930601089580910501262F30E0A3
:103C7000280F311D2F3F310524F4680F6093050193
:103C800008958FEF80930501089580910401262FF8
:103C900030E0280F311D2F3F310524F4680F609369
:103CA000040108958FEF809304010895833011F18A
:103CB00028F4813049F0823091F00895853081F107
:103CC00020F18630C1F1089580910D03681720F42A
:103CD000861B80930D03089510920D030895809123
:103CE0000801681720F4861B80930801089510923C
:103CF0000801089580910701681720F4861B8093BE
:103D00000701089510920701089580910601681730
:103D100020F4861B809306010895109206010895F1
:103D200080910501681720F4861B80930501089592
:103D300010920501089580910401681720F4861BF4
:103D40008093040108951092040108950F931F9326
:103D5000873208F04DC08E3108F093C0803109F4ED
:103D60007DC008F5873009F46BC068F4863009F02F
:103D7000A3C080910903817F8E7F8093090381E036
:103D8000809316039AC08B3009F48FC08E3009F0EF
:103D900093C08091090382FB222720F991E09227AA
:103DA00090FB82F964C0863109F47FC088F48131C8
:103DB00009F082C00E940F138091410387FB2227E4
:103DC00020F991E0922790FB87F9809341036DC021
:103DD000893109F46AC08B3109F06EC08091090302
:103DE00081FB222720F991E0922790FB81F93FC0C7
:103DF000883309F45AC050F4893209F458C0853325
:103E000009F455C0873209F452C056C0833409F40E
:103E10004EC028F48A3308F44FC0895333C0883425
:103E200009F04AC00E940F130FEF13ED20E3015079
:103E300010402040E1F700C000000E94741B35C014
:103E400080910903982F9095917090FB80F9809351
:103E5000090391112AC0897F877F10C080910903CF
:103E600083FB222720F991E0922790FB83F980932E
:103E700009039923D1F0809109038160809309039C
:103E800014C08D5141E050E060E070E08A019B0178
:103E900004C0000F111F221F331F8A95D2F7C901DA
:103EA000B8010E94E7160E940F1381E006C061E08E
:103EB00070E080E090E0F5CF80E01F910F910895D1
:103EC00080E0089580E008958E518A3030F4E82F24
:103ED000F0E0E454FE4F8081089580E00895CF9390
:103EE000C82F80911603813079F018F08230E9F103
:103EF00085C0E0910201F09103018081813169F078
:103F0000823209F07DC009C0E0910201F091030105
:103F10008081813111F0823261F48C2F0E94601F08
:103F2000811104C08C2F0E94A61E1DC081E090E06C
:103F30001AC08C2F0E94621F811114C0C43179F005
:103F400048F4CB3079F0C03109F05EC082E0809354
:103F5000160308C0C93219F0C83321F055C01092B9
:103F6000160352C081E0817051C0C93279F108F561
:103F7000C43161F1A0F4C73009F044C010920D03C0
:103F800084E180930801C09307018CE380930601CC
:103F900088E08093050188E28093040133C082EEBB
:103FA0008C0F863078F58C2F0E94641F8093150348
:103FB00029C0CE34E9F020F4CB3421F56AE013C0F7
:103FC000C13579F0C235F1F461E00DC0809115037F
:103FD000882319F01092150315C081E08093160311
:103FE00015C061E006C0809115030E94E01D0AC063
:103FF0006AE0809115030E94561E04C010921603B9
:1040000080E004C081E002C080E0ADCFCF91089590
:104010008091370308950F931F93CF93DF9300D0C0
:104020001F92CDB7DEB78C010E948122823011F041
:10403000843019F593E099831B830A839093E900F8
:104040008FEF9091E800815095FD06C095ED9A950F
:10405000F1F700008111F5CF8091E80085FF0DC0D8
:1040600040E050E063E070E0CE0101960E949E22A5
:104070008091E8008E778093E8000F900F900F906A
:10408000DF91CF911F910F910895CF93DF9300D0CF
:104090001F92CDB7DEB720914703243031F522E0DF
:1040A0002983805891099B838A8383E08093E90068
:1040B0008FEF9091E800815095FD06C095ED9A959F
:1040C000F1F700008111F5CF8091E80085FF0DC068
:1040D00040E050E063E070E0CE0101960E949E2235
:1040E0008091E8008E778093E8000F900F900F90FA
:1040F000DF91CF910895CF93DF93EC010E9481224D
:10410000823011F08430F9F482E08093E9009FEF6F
:104110008091E800915085FD06C085ED8A95F1F704
:1041200000009111F5CF8091E80085FF0CC040E0C0
:1041300050E065E070E0CE010E949E228091E80090
:104140008E778093E800DF91CF910895CF93DF932E
:10415000EC010E948122823019F0843009F047C0BE
:10416000809113018823E1F08091410387FF18C0FB
:1041700084E08093E9008FEF9091E800815095FDF5
:1041800006C095E19A95F1F700008111F5CF809175
:10419000E80085FF2CC040E050E060E270E017C00E
:1041A00081E08093E9008FEF9091E800815095FDC8
:1041B00006C095ED9A95F1F700008111F5CF809139
:1041C000E80085FF14C040E050E068E070E0CE01F8
:1041D0000E949E228091E8008E778093E80080E222
:1041E000FE01A7E1B3E001900D928A95E1F7DF911E
:1041F000CF91089580914603811109C00E94332414
:104200000E9490248091E20084608093E2000895EF
:10421000109246030895089508950C94DE1A42E022
:1042200061EC81E00E94AD2342E061EC82E00E94FB
:10423000AD2342E061EC83E00E94AD2342E261ECF9
:1042400084E00C94AD2380914903833009F455C078
:1042500030F4813071F0823009F48EC008958A30D4
:1042600009F47AC08B3009F460C0893009F09CC031
:1042700020C080914803813A09F096C08091E800FF
:10428000877F8093E80080914C0390914D03892BA8
:1042900021F460E287E193E003C060E080E090E019
:1042A00070E00E94E9228091E8008B778093E8001B
:1042B000089580914803813209F076C080914C03C3
:1042C00090914D03009719F0039709F06DC080910C
:1042D000E800877F8093E8008091E80082FD05C0B8
:1042E000809147038111F8CF5FC08091F1008093E6
:1042F00037038091E8008B7753C080914803813A5F
:1043000009F052C080914C0390914D03892B09F024
:104310004BC08091E800877F8093E8008091E8009F
:1043200080FFFCCF8091130136C080914803813219
:10433000D9F580914C0390914D03892BA9F580917B
:10434000E800877F8093E8000E94E22380914A037F
:10435000809313010C940F1380914803813221F54F
:104360008091E800877F8093E8000E94E22380919B
:104370004B0380933803089580914803813AA1F458
:104380008091E800877F8093E8008091E80080FFBB
:10439000FCCF809138038093F1008091E8008E7704
:1043A0008093E8000C94E223089584B7877F84BF4C
:1043B0000FB6F894A89580916000886180936000A2
:1043C000109260000FBE80E880936100109261003F
:1043D0000E94400D0E9433240E9490248091E200AC
:1043E00084608093E20078940E941F270E94440D0D
:1043F00089E091E00E94EC0C80914703853069F4DC
:104400000E94961A809145038823B1F30E94C71A2F
:10441000882391F30E948822EFCF0E94500DECCFA9
:104420000C941222292F332723303105C9F064F46C
:104430002130310581F02230310509F049C08DE687
:1044400090E02EE735E048C02132310521F12232DB
:10445000310571F13DC082E190E02BEE35E03CC0CA
:1044600099278130910571F02CF4892B89F5EAE7C1
:10447000F5E00DC08230910541F0039749F5E4E481
:10448000F5E005C0E2E6F5E002C0EAE4F5E084917B
:1044900090E09F0121C064307105D0F4660F771F52
:1044A000FB01EE52FE4F2081318189E090E014C083
:1044B0006430710568F4FB01EE0FFF1FE653FE4FF9
:1044C00020813181FB01EA53FE4F808190E004C0DE
:1044D00080E090E020E030E0FA013183208308950D
:1044E0000895CF93C82F0E947022C0933903CF91B3
:1044F000089580914703843011F081E0089582E0AF
:10450000089580913903811102C00C947922089595
:1045100080E189BD82E189BD09B400FEFDCF8091B3
:10452000D8008F7D8093D8008091E00082608093D6
:10453000E0008091E00081FDFCCF0895CF92DF92F2
:10454000EF92FF920F931F93CF93DF93EC018B01B8
:104550006A010E940124811133C0C114D10439F0D1
:10456000F60180819181081B190BC80FD91FE12C1E
:10457000F12C0115110519F18091E80085FD16C097
:104580008091E8008E778093E800C114D10449F04F
:10459000F60180819181E80EF91EF182E08285E0CA
:1045A0000FC00E940124882321F30AC089918093BF
:1045B000F10001501109FFEFEF1AFF0ADACF80E096
:1045C000DF91CF911F910F91FF90EF90DF90CF90EF
:1045D000089520914E0330914F032617370748F076
:1045E0006115710539F42091E8002E772093E800D9
:1045F00001C0B90140E061157105A9F1209147039F
:10460000222309F443C0253009F442C02091E80078
:1046100023FD40C02091E80022FD32C02091E80037
:1046200020FFE9CF4091F3002091F20030E0342BDD
:10463000FC01CF016115710559F02830310540F4B6
:1046400081918093F100615071092F5F3F4FF1CF4D
:1046500041E02830310509F040E02091E8002E7754
:104660002093E800C8CF4111C9CF0AC08091470309
:10467000882361F0853061F08091E80083FD0AC0F5
:104680008091E80082FFF2CF80E0089582E00895F3
:1046900083E0089581E0089520914E0330914F0307
:1046A0002617370748F06115710539F42091E800A5
:1046B0002E772093E80001C0B901FC0120E06115CC
:1046C000710591F180914703882309F440C085303A
:1046D00009F43FC08091E80083FD3DC08091E8006F
:1046E00082FD2FC08091E80080FFE9CF2091F30088
:1046F0008091F20090E0922B6115710559F088309D
:10470000910540F424912093F10031966150710994
:104710000196F2CF21E0089709F020E08091E800AF
:104720008E778093E800CBCF2111CCCF0AC0809147
:104730004703882361F0853061F08091E80083FDB4
:104740000AC08091E80082FFF2CF80E0089582E005
:10475000089583E0089581E00895982F973058F5E3
:104760009093E900981739F07091EC002091ED00DA
:104770005091F00003C0242F762F50E021FF19C084
:104780003091EB003E7F3093EB003091ED003D7FA8
:104790003093ED003091EB0031603093EB0070937B
:1047A000EC002093ED005093F0002091EE0027FFE5
:1047B00007C09F5FD3CF8F708093E90081E0089599
:1047C00080E008958091480387FF11C08091E80040
:1047D00082FD05C0809147038111F8CF11C08091FF
:1047E000E8008B770BC080914703882349F08091C4
:1047F000E80080FFF8CF8091E8008E778093E80092
:1048000008952091E4003091E50095E64091EC0098
:10481000842F817040FF22C08091E80080FD1CC081
:1048200080914703882391F0853091F08091EB00CF
:1048300085FD10C04091E4005091E50042175307F8
:1048400029F39A01915011F784E0089582E00895C8
:1048500083E0089581E0089580E008954091E800A4
:1048600042FFDECF08950E94A1240E94A924E0EE19
:10487000F0E0808181608083E8EDF0E080818F77D7
:10488000808319BCA7EDB0E08C918E7F8C938081E2
:104890008F7E80831092460308950F931F93CF93CA
:1048A000DF930E94A1240E94A924C8EDD0E0888152
:1048B0008F77888388818068888388818F7D8883CB
:1048C00019BC1092470310924303109245031092B3
:1048D000440300EE10E0F80180818B7F80838881A3
:1048E0008160888342E060E080E00E94AD23E1EED9
:1048F000F0E080818E7F8083E2EEF0E08081816055
:104900008083808188608083F80180818E7F8083AE
:10491000888180618883DF91CF911F910F910895E5
:10492000E8EDF0E080818F7E8083E7EDF0E080812C
:104930008160808384E082BF81E0809346030C9491
:104940004D24E8EDF0E080818E7F80831092E200BC
:1049500008951092DA001092E10008951F920F92CC
:104960000FB60F9211242F933F934F935F936F9342
:104970007F938F939F93AF93BF93EF93FF93809118
:10498000E10082FF0BC08091E20082FF07C08091AE
:10499000E1008B7F8093E1000E941E278091DA0066
:1049A00080FF1FC08091D80080FF1BC08091DA007B
:1049B0008E7F8093DA008091D90080FF0DC080E166
:1049C00089BD82E189BD09B400FEFDCF81E08093FD
:1049D00047030E94FA2005C019BC109247030E94A9
:1049E00008218091E10080FF19C08091E20080FFE2
:1049F00015C08091E2008E7F8093E2008091E200FA
:104A000080618093E2008091D80080628093D8001A
:104A100019BC85E0809347030E940C218091E1003E
:104A200084FF30C08091E20084FF2CC080E189BD0A
:104A300082E189BD09B400FEFDCF8091D8008F7D51
:104A40008093D8008091E1008F7E8093E100809177
:104A5000E2008F7E8093E2008091E200816080938B
:104A6000E20080914303882311F084E007C0809125
:104A7000E30087FD02C081E001C083E0809347032B
:104A80000E940D218091E10083FF29C08091E20006
:104A900083FF25C08091E100877F8093E10082E061
:104AA00080934703109243038091E1008E7F8093AF
:104AB000E1008091E2008E7F8093E2008091E2002D
:104AC00080618093E20042E060E080E00E94AD23DC
:104AD0008091F00088608093F0000E940B21FF918C
:104AE000EF91BF91AF919F918F917F916F915F9166
:104AF0004F913F912F910F900FBE0F901F901895DF
:104B00001F920F920FB60F9211242F933F934F9342
:104B10005F936F937F938F939F93AF93BF93CF9345
:104B2000DF93EF93FF93C091E900CF708091EC0089
:104B3000D82FD17080FDD0E81092E9008091F0006C
:104B4000877F8093F00078940E94C4251092E9003A
:104B50008091F00088608093F000CD2BCF70C093DF
:104B6000E900FF91EF91DF91CF91BF91AF919F91BC
:104B70008F917F916F915F914F913F912F910F9006
:104B80000FBE0F901F9018951F93CF93DF93CDB753
:104B9000DEB7AA970FB6F894DEBF0FBECDBFE8E42C
:104BA000F3E088E08E0F9091F10091938E13FBCF8C
:104BB0000E9423218091E80083FF28C1809148034F
:104BC00090914903492F50E04A30510508F01EC129
:104BD000FA01E755FF4F0C944E27803821F08238B8
:104BE00009F014C108C080914403909145039923B2
:104BF00089F082600FC080914C038F70873008F07D
:104C000005C18093E9008091EB0085FB882780F93E
:104C10001092E9009091E800977F9093E8008093CC
:104C2000F1001092F100D0C0282F2D7F09F0EEC0C6
:104C3000882319F0823061F0E9C080914A03813005
:104C400009F0E4C0933009F080E0809345032EC062
:104C500080914A0381112AC080914C038F702FEFFD
:104C6000280F263008F0D2C08093E9002091EB0095
:104C700020FF1CC0933021F48091EB00806214C0AF
:104C80009091EB0090619093EB0021E030E0A9015E
:104C900002C0440F551F8A95E2F74093EA00109234
:104CA000EA008091EB0088608093EB001092E900AD
:104CB0008091E800877F8093E8000E94E223A6C0ED
:104CC0008111A4C010914A031F778091E30080787E
:104CD000812B8093E3008091E800877F8093E80038
:104CE0000E94E2238091E80080FFFCCF8091E300E6
:104CF00080688093E300111102C082E001C083E06C
:104D00008093470383C08058823008F07FC0809131
:104D10004A0390914B038C3D53E0950779F583E06E
:104D20008A838AE289834FB7F894DE01139620E0E4
:104D30003EE051E2E32FF0E050935700E49120FF72
:104D400003C0E295EF703F5FEF708E2F90E0EA3086
:104D500010F0C79601C0C0968D939D932F5F2431AC
:104D600049F74FBF8091E800877F8093E8006AE2AF
:104D700070E0CE0101960E94E92215C060914C03BB
:104D800070914D03AE014F5F5F4F0E941022BC0136
:104D9000892BE1F19091E800977F9093E800898159
:104DA0009A810E944C238091E8008B778093E800E1
:104DB0002DC0803859F58091E800877F8093E80006
:104DC000809143038093F1008091E8008E7773CF48
:104DD00081111CC090914A039230C0F48091E80088
:104DE000877F8093E800909343030E94E2238091A1
:104DF0004303811106C08091E30087FD02C081E07A
:104E000001C084E0809347030E940F218091E80055
:104E100083FF0AC08091E800877F8093E80080913B
:104E2000EB0080628093EB00AA960FB6F894DEBF89
:104E30000FBECDBFDF91CF911F9108950895CF93FD
:104E4000809147038823A1F0C091E900CF70909131
:104E5000EC00892F817090FD80E8C82B1092E9004A
:104E60008091E80083FD0E94C425CF70C093E900C3
:104E7000CF91089597FB072E16F4009407D077FD85
:104E800009D00E94542707FC05D03EF490958195E7
:104E90009F4F0895709561957F4F0895EE0FFF1F06
:104EA0000590F491E02D0994AA1BBB1B51E107C0AA
:104EB000AA1FBB1FA617B70710F0A61BB70B881FAA
:104EC000991F5A95A9F780959095BC01CD01089539
:104ED000F999FECF92BD81BDF89A992780B50895C2
:104EE000A8E1B0E042E050E00C949C27262FF9990D
:104EF000FECF92BD81BDF89A019700B4021639F039
:104F00001FBA20BD0FB6F894FA9AF99A0FBE089509
:104F10000396272F0E9477270E947627252F0E942D
:104F20007727242F0C9477270196272F0E94772725
:104F30000C947627DC01CB01FC01F999FECF06C069
:104F4000F2BDE1BDF89A319600B40D924150504047
:084F5000B8F70895F894FFCFB3
:104F58002000E60228083C07140820A6207B2045EC
:104F6800200B2001000D010D020D030D040D050D90
:104F7800000C010C020C030C040C050C000B010BBB
:104F8800020B030B040B050B000A010A020A030AB1
:104F9800040A050A000901090209030904090509A7
:104FA80000080108020803080408050800070107AB
:104FB80002070307040705070006010602060306A1
:104FC8000406050600050105020503050405050597
:104FD800000401040204030404040504000301039B
:104FE8000203030304030503000201020202030291
:104FF8000402050200010101020103010401050187
:10500800000001000200030004000500010203047F
:10501800050607080900404D3639B9066C063606FC
:0A502800FD059005A905C205DB0592
:00000001FF
