:100000000C9466030C9483030C9483030C94830375
:100010000C9483030C9483030C9483030C94830348
:100020000C9483030C9483030C943C220C940E23B5
:100030000C94B11A0C9483030C9483030C948303E3
:100040000C9483030C9483030C9483030C94830318
:100050000C9483030C94191B0C9483030C9483035A
:100060000C9483030C9483030C9483030C948303F8
:100070000C9483030C9483030C9483030C948303E8
:100080000C9483030C9483030C9483030C948303D8
:100090000C9483030C9483030C9483030C948303C8
:1000A0000C9483030C9483030C948303DB03DE031F
:1000B000E103E403E703EA03ED0309070E0718076A
:1000C0000C07110716071407720874087F087608D2
:1000D00078087A087C087E088108830885089008DB
:1000E000870889088B088D088F0892080310031071
:1000F000351035106C108C10F5115312CE105312B0
:100100007B117B11EC11531253124D12881188117F
:100110008811881188118811881188118811881117
:100120008811881188118811881188119911A611D8
:10013000AD11B411BE11E012E012F212F212E91286
:10014000F212F212F212E012E012EE12F212F212B7
:10015000EE127B23A2239424A2239424EE231124C1
:100160009424672476246572676F646F785F657A7C
:100170002F623065353063663866336266363133F8
:100180003333333064204020302E362E3232302D3F
:10019000362D673438346338352D646972747900CC
:1001A0000000F0A129004B004E00010001000000FA
:1001B0001E00140004681D00010001001F001A0049
:1001C00016641B0001002B42200008000761060096
:1001D00050002C4121001500096219004F001350F6
:1001E000220017000A000500000011500100010064
:1001F0000000010000001250010001000000010099
:100200000000010023001C000B0011000000010091
:10021000240018000D7210005100010025000C0090
:100220000E71360052002A00260012000F743700AB
:100230000100280027001300337838000100010076
:1002400001000100010001000100000001000100A7
:1002500001000100010000003A00010000680100F7
:10026000010010503B0035002F64330001002900CD
:100270003C002D0030613400010001003D002E00E3
:1002800031623800010001003E0001000100010060
:1002900000000100010001000000010000001250F8
:1002A0000100010000000100000001003F0001000A
:1002B00037000100000001004000240021721E00F0
:1002C000010001004100250022711F0001002A00E9
:1002D000420026002374200001004C00430001006E
:1002E00027780100010001004400450001000100E1
:1002F00001000000010001000100010001000000F8
:100300000100010001000100010010500100F40093
:10031000F200AA0001000100F600F000F100A800C0
:10032000010001000100F500F300A9000100010037
:100330000100010001000100000011500100010056
:1003400000000100000001000100010000000100A8
:100350000000010001000100010001000000010097
:100360000100AC0050004A00010001000100AE0095
:1003700051004B00010039000100AB0052004E005B
:1003800001000100010001004F004D0001000100CB
:1003900001000100010001000100000029002B0004
:1003A0000100E100010000001E00140004001D0017
:1003B000010010501F001A0016001B000100010070
:1003C000200008000700060000612C002100150035
:1003D000090019002C000100220017000A00050086
:1003E000000001000100180000000C0000000100E6
:1003F00001000100000001000000010023000100D5
:1004000001000100000001002400010001000100C2
:1004100001000100250001000100010001000100B0
:100420002600010001000100010001002700010079
:1004300001000100010001000100010001000100B4
:100440000100000000000000000000002A2B28002E
:100450000000000000000000000000000000002973
:10046000000000002C1E3420212224342627252EB3
:10047000362D3738271E1F202122232425263333EB
:10048000362E37381F0405060708090A0B0C0D0E17
:100490000F101112131415161718191A1B1C1D2FE3
:1004A0003130232D350405060708090A0B0C0D0E03
:1004B0000F101112131415161718191A1B1C1D2FC3
:1004C0003130354C0000000000000000000000004A
:1004D000000000000000000000000000000000001C
:1004E0000000000000010101010101000101010102
:1004F00000000000000000000000000000000100FB
:1005000001000101010101010101010101010101DC
:1005100001010101010101010101010101010100CC
:1005200000000101000000000000000000000000C9
:1005300000000000000000000000000000000001BA
:1005400001010100040330000000160345007200A1
:1005500067006F0044006F007800200045005A00DB
:10056000000016034500720067006F0044006F0032
:100570007800200045005A00000004030904090225
:100580003B00020100A0FA09040000010301010080
:100590000921110100012240000705810308000A1A
:1005A00009040100010300000009211101000122DA
:1005B000C0000705820320000A120110010000009C
:1005C00008EDFE071301000102030105010902A164
:1005D0000185020901A10005091901290515002558
:1005E00001950575018102950175038101050109D8
:1005F0003009311581257F95027508810609381566
:1006000081257F950175088106050C0A3802158140
:10061000257F950175088106C0C005010980A101EB
:1006200085031601002603001A81002A8300751035
:1006300095018100C0050C0901A101850416010086
:10064000269C021A01002A9C02751095018100C0A7
:1006500005010906A1018505050719E029E715002F
:1006600025019508750181020508190129059505DF
:10067000750191029501750391010507190029EF94
:100680001500250195F075018102C005010906A13B
:1006900001050719E029E715002501950875018175
:1006A000029501750881010508190129059505754F
:1006B0000191029501750391010507190029FF15A4
:1006C0000026FF00950675088100C00011241FBE9A
:1006D000CFEFDAE0DEBFCDBF11E0A0E0B1E0E4E7AC
:1006E000FAE402C005900D92AC3BB107D9F723E0C4
:1006F000ACEBB1E001C01D92A134B207E1F70E945A
:10070000601F0C9438250C94000080B38C7080BB63
:1007100081B3836F81BB089584B1807F84B985B133
:10072000807F85B98AB1837F8AB98BB1837F8BB98A
:100730003E9846980895CF93E82F873090F58091A2
:10074000000190910101892B09F049C0CE2F64E688
:1007500070E080E40E941C059093010180930001E9
:10076000892BD1F464E670E082E10E9473059093D6
:10077000010180930001892B79F481E090E001C0B0
:10078000880FCA95EAF764E670E080950E947305C9
:10079000909301018093000184E690E0CF910C9446
:1007A000C80590E0FC013797E730F105C0F4EA5A3C
:1007B000FF4F0C94DC24209A289811C0219A299884
:1007C0000EC0229A2A980BC0239A2B9808C0529ADE
:1007D0005A9805C0539A5B9802C03E9A4698CF91AA
:1007E0000895089508950C94F203CF93DF930E9427
:1007F0005A0690E090930101809300010E948C03BF
:100800000E948503A1E1B2E02DEB31E0EFE1F2E0DF
:100810004EE04E0F11921D9280E090E0E901C80F6A
:10082000D91F1882019686309105C1F72A5F3F4F84
:100830004E13F0CFDF91CF910C9481070E945A069E
:1008400090E090930101809300010E948C030E942C
:100850008503EFE1F2E08EE08E0F11928E13FDCF53
:100860000895CF93DF93E62FF0E0EF5EFD4F4081D8
:100870004827808386E0689FF0011124E354FE4FEF
:1008800020E030E080E061E070E050E0AAE0B22FCC
:100890009081992319F09150908307C0EB01022EAB
:1008A00001C0CC0F0A94EAF78C2BEA0102C0D5955F
:1008B000C795BA95E2F7C0FDA0832F5F3F4F3196F1
:1008C0002630310521F7DF91CF910895CF93DF9343
:1008D000D82F873008F040C080910001909101012D
:1008E000892B09F042C064E670E080E40E941C0598
:1008F0009093010180930001892B11F0C0E027C083
:1009000064E670E083E10E94730590930101809397
:100910000001892B99F764E670E081E40E941C05D0
:100920009093010180930001892B41F784E690E0C8
:100930000E94A30597FF05C09093010180930001D9
:10094000DDCFC82FC095109201011092000184E6FE
:1009500090E00E94C8050AC09FB1CFB1C07FC69584
:10096000C6959370C92BC09501C0C0E06D2F8C2F28
:100970000E943104282F2095ED2FF0E0E15EFD4F1D
:10098000908192238C23892BDF91CF910895EF9250
:10099000FF920F931F93CF93DF938091000190916B
:1009A0000101892B91F08091BC018F5F8093BC0184
:1009B00081110BC00E945A0690E090930101809330
:1009C0000001892B11F40E94EC058FE1E82E82E0F2
:1009D000F82E06E212E0C0E08C2F0E949B03D7E0C5
:1009E000DC0F8D2F0E949B038C2F0E946604F70161
:1009F00081937F018D2F0E946604F80181938F01FE
:100A00000E948C03CF5FC73039F70E948B0781E0CB
:100A1000DF91CF911F910F91FF90EF900895E82FF4
:100A2000F0E0E15EFD4F8081089508951092B900D5
:100A30008CE08093B8000895EF92FF920F931F937C
:100A4000CF93DF93182FEB011092BC0084EA8093C0
:100A5000BC000E94E31A7C019091BC0097FD0EC07F
:100A6000CF3F8FEFD807C1F30E94E31A8E199F0979
:100A70008C179D0788F38EEF9FEF2EC09091B900E1
:100A8000987F983041F09091B900987F903119F09B
:100A90008FEF9FEF21C01093BB0084E88093BC00D0
:100AA0000E94E31A8C019091BC0097FD0CC0CF3FCF
:100AB0008FEFD807C1F30E94E31A801B910B8C17AC
:100AC0009D0788F3D8CF8091B900887F883111F0D5
:100AD0008034F1F680E090E0DF91CF911F910F918B
:100AE000FF90EF9008950F931F93CF93DF93EB0147
:100AF0008093BB0084E88093BC000E94E31A8C01C1
:100B00009091BC0097FD0EC0CF3F8FEFD807C1F387
:100B10000E94E31A801B910B8C179D0788F38EEFC0
:100B20009FEF0CC02091B900287F81E090E028322F
:100B300011F480E090E0919581959109DF91CF913A
:100B40001F910F9108950F931F93CF93DF93EC01A3
:100B500084E88093BC000E94E31A8C019091BC0051
:100B600097FD0EC0CF3F8FEFD807C1F30E94E31A65
:100B7000801B910B8C179D0788F38EEF9FEF03C0AE
:100B80008091BB0090E0DF91CF911F910F9108956C
:100B90000F931F93CF93DF93EC0184E98093BC0004
:100BA0000E94E31A8C019091BC0094FF0EC0CF3FCD
:100BB0008FEFD807C1F30E94E31A801B910B8C17AB
:100BC0009D0788F38EEF9FEF02C080E090E0DF91F9
:100BD000CF911F910F91089556985E9825982D9862
:100BE00026982E9827982F988FEF90E09093890061
:100BF0008093880090938B0080938A0090938D005F
:100C000080938C00259A2D9A2FEF80E792E0215057
:100C100080409040E1F700C00000269A2E9A2FEF06
:100C200080E792E0215080409040E1F700C0000052
:100C3000279A2F9A2FEF80E792E021508040904032
:100C4000E1F700C0000025982D982FEF80E792E093
:100C5000215080409040E1F700C0000026982E9877
:100C60002FEF80E792E0215080409040E1F700C0F4
:100C7000000027982F9856985E9825982D982698CA
:100C80002E9827982F98089589EA8093800089E00C
:100C90008093810024982C983F988AB18F7C8AB9E0
:100CA0006E98479A8BB180638BB9769A0E94EC0557
:100CB0000C94F10380E290E0909301018093000195
:100CC00080912D0281110EC00E94160581E0809353
:100CD0002D022FEF83ED90E3215080409040E1F70B
:100CE00000C0000064E670E080E40E941C05909360
:100CF000010180930001892B09F050C064E670E087
:100D000080E00E9473059093010180930001892B7C
:100D100009F044C064E670E080E00E94730590939F
:100D2000010180930001892BC9F564E670E08FE32F
:100D30000E9473059093010180930001892B71F546
:100D400084E690E00E94C80564E670E080E40E94BA
:100D50001C059093010180930001892BF9F464E64E
:100D600070E08CE00E947305909301018093000174
:100D7000892BA1F464E670E080E00E9473059093F3
:100D8000010180930001892B49F464E670E08FE350
:100D90000E947305909301018093000184E690E026
:100DA0000E94C805809100010895611108C0FC01EE
:100DB0008281882321F086E691E00E947E0780E010
:100DC00090E00895863E9C4541F4FB018281882392
:100DD00029F00E94CF1980E0089581E00895CF9214
:100DE000DF92EF92FF926B017C010E9411195698DD
:100DF0005E9825982D9826982E9827982F9890E001
:100E0000FC013197E730F105A8F4E35AFF4F0C9449
:100E1000DC24259A2D9A0EC0259A2D9A269A2E9A70
:100E200009C0259A2D9A04C0259A2D9A269A2E9AA1
:100E3000279A2F9AC701B601FF90EF90DF90CF90CD
:100E4000089581E008950C94E206CF93282F30E0B6
:100E5000F901EC5BFB4FC491F901EC53FB4F24917A
:100E6000222359F081EE0E94330E8C2F0E94330E04
:100E70008C2F0E94510F81EE04C08C2F0E94330EE4
:100E80008C2FCF910C94510F0F931F93CF93DF931F
:100E9000EC01062FFE018491882359F19E012F5FFA
:100EA0003F4F813041F4E901F9011491812F0E94F3
:100EB000330E812F0DC0823031F4E901F9018491A4
:100EC0000E94330E0AC0833031F4E901F9018491A4
:100ED0000E94510F02C00E9425072196802F88236F
:100EE000C9F2EFE9FFE03197F1F700C0000081504F
:100EF000F6CFDF91CF911F910F91089560E00C9490
:100F000044070E946119811102C00E94CF190E94FA
:100F1000D70B0C9444060C94F303282F2F7041F048
:100F2000822F90E02A3010F44D9608950697089588
:100F300087E290E0089508950C949B070C949C0719
:100F400008950E94CE120E94A0072FEF84E39CE038
:100F5000215080409040E1F700C000000C943F1BFE
:100F6000FF920F931F93CF93DF938C01FC01C081FD
:100F7000D18180915902811113C08281882349F067
:100F8000CE010E940118F82E682FCE010E94A417EE
:100F900004C0CE010E94D417F82EBE018F2D04C0CC
:100FA000CE010E940118BE010E944909EC01B8015E
:100FB0000E942307882309F464C1B801CE010E946E
:100FC000520C882309F45DC1C63DFCE5DF0761F5DD
:100FD000F8018281882351F0109233020E94E31AB3
:100FE0009093300280932F0282E03BC00E94D2187F
:100FF00085FF05C081E080933302809334028091A5
:10100000330281110FC080912F02909130020E9413
:10101000EF1A853B910530F486E20E94330E86E29A
:101020000E94510F82E02FC0C73D8CE5D80770F1B8
:10103000CB3D8CE5D80709F4D6C008F0DBC0C73D2E
:10104000FCE5DF0709F0F4C0F8018281882361F034
:10105000109234020E94E31A90933202809331027C
:1010600080E20E94C10F0DC10E94D21881FF05C00D
:1010700081E080933302809334028091340288238C
:1010800009F4C5C080E20E94C80FFBC0C531ECE581
:10109000DE0708F07EC0C230FCE5DF0708F452C06E
:1010A000F8018281882309F459C00E9461198111D5
:1010B00002C00E94CF190E94741990E090933303EC
:1010C00080933203FE01E350FC45E231F10530F438
:1010D000EC59FF4F809132030C94DC248091320351
:1010E000816027C0826025C0846023C0806121C0E8
:1010F00080621FC080641DC080681BC084608860DF
:1011000018C08E7F16C08D7F14C08B7F12C08F7E5B
:1011100010C08F7D0EC08F7B0CC08F770AC08B7F75
:10112000877F07C087FB222720F991E0922790FB59
:1011300087F980933203809132030E9478190E94CC
:10114000CE129FC0C1158CE5D80781F0C130DC45B7
:10115000A9F081E08093330280933402C801DF91CB
:10116000CF911F910F91FF900C942107F80182817C
:10117000882309F486C00E94A10783C0F8018281F8
:10118000882309F47EC08091F80281608093F80280
:1011900078C0C631DC45E9F60E94D218282FF80144
:1011A00082814091020150910301882379F02A7ACB
:1011B00091E009F490E090932E02911102C069E24F
:1011C00001C065E3CA010E94361A0AC080912E024E
:1011D000811102C069E201C065E3CA010E94411A9F
:1011E0000E949F184EC0F8018281882309F449C0EB
:1011F00080E00AC0CC3DECE5DE07D1F5F801828144
:10120000882309F43EC082E00E94FF1F3AC080910B
:101210003102909132020E94EF1A853B910508F04D
:1012200031CF87E20E94330E87E20E94510F2ACF0E
:10123000C83DDC4509F08DCFF8018281811108CFCE
:101240008091340281111ECF80913102909132023F
:101250000E94EF1A853B910508F014CF80E20E94AE
:10126000C80F88E20E94330E88E20E94510F09C025
:10127000CD3DDC4509F06DCFF801828181110E94DE
:10128000CF1980E0DF91CF911F910F91FF900895CA
:10129000089596E0799FF001112494E5899FE00D6F
:1012A000F11D1124E60FF11DEE0FFF1FEC55FE4F4F
:1012B000859194910895880F991FFC01E056FE4F87
:1012C000859194910895CF93DF930E9449090E94DC
:1012D000200BEC01811520E59207F0F5811530E433
:1012E000930708F029C1883E910500F5803E9105DD
:1012F00008F0A2C1883A910570F4853A910508F08A
:10130000A3C08130910509F497C108F448C104973E
:1013100008F092C144C18F3B910508F4A0C0803C05
:10132000910508F43CC1805C9109F8C08115904298
:1013300058F4C11581E0D80708F07EC1C03FD1053F
:1013400008F42DC1D06578C1C11590E3D90708F024
:10135000E9C0CE019F70E2C0811525E5920708F033
:1013600043C0811534E5930708F0FDC0811542E5BF
:10137000940708F5C11581E5D80708F0E0C02C2FC7
:10138000237081E090E002C0880F991F2A95E2F750
:101390009C689E0174E0369527957A95E1F7237055
:1013A000922BCF70C695C69540E2C49FE0011124F0
:1013B000C82BD92B41C1869586959E012370332772
:1013C000C115D34508F0C0C040E2849FC00111247C
:1013D000C1E0D0E002C0CC0FDD1F2A95E2F78C2BD4
:1013E0009D2BEC01DC6828C181152AE5920798F451
:1013F000811539E5930708F0C1C08115964508F4B9
:10140000B7C0C11588E5D80708F4C9C0DC2FCC27C0
:10141000C06FD06A11C1C1159BE5D90708F4BFC0E0
:10142000C1152CE5D20708F4B7C0CE01905681153E
:10143000904208F0B4C08D2F8F710E949D0BDD2764
:10144000D0628F71D82BF8C0853A910509F4AAC0F3
:10145000863A910509F0A9C0C2E8D0E4EDC0883A07
:10146000910509F4A5C0893A910509F4A4C08A3A06
:10147000910509F4A3C08B3A910509F4A2C08C3AF6
:10148000910509F4A1C08B3B910509F4A0C08C3BE8
:10149000910509F49FC08D3A910509F49EC0803BE7
:1014A000910509F49DC08E3A910509F49CC08F3ACC
:1014B000910509F49BC0813B910509F49AC0823BD8
:1014C000910509F499C0833B910509F498C0843BC8
:1014D000910509F497C0853B910509F496C0863BB8
:1014E000910509F495C0873B910509F494C0883BA8
:1014F000910509F493C0893B910509F492C08D3B95
:10150000910509F491C08E3B910509F490C08A3B86
:10151000910509F48FC0C0E0D4E48EC00E945B093D
:10152000EC018AC0CE019927D3FF03C0EC01D86C2F
:1015300083C0EC01D06C80C0DF70D06A7DC0DC2F2E
:10154000CC27C16FD06A78C040E2849FC0011124CB
:10155000C1E0D0E002C0CC0FDD1F2A95E2F7C82B16
:10156000D92BDA6869C0D82FCC27C46FD06A64C081
:10157000CF71DD27DC2FCC27D0625EC08F70806EEC
:1015800090E0906A24E0D695C7952A95E1F7CF7050
:101590009C013C2BE90150C0DD27D0664DC0C0E066
:1015A000D0E04AC0C1E8D0E447C0C3E8D0E444C0BA
:1015B000C2EED4E441C0C9EED4E43EC0CAEED4E4E5
:1015C0003BC0C5EBD4E438C0C6EBD4E435C0C3EBB4
:1015D000D4E432C0C4EBD4E42FC0C7EBD4E42CC0B5
:1015E000CCECD4E429C0CDECD4E426C0C3E8D5E4E7
:1015F00023C0CAE8D5E420C0C2E9D5E41DC0C4E9CF
:10160000D5E41AC0C1E2D6E417C0C3E2D6E414C0E0
:10161000C4E2D6E411C0C5E2D6E40EC0C6E2D6E408
:101620000BC0C7E2D6E408C0CFE6D4E405C0C0E7EB
:10163000D4E402C0CAE2D6E4CE01DF91CF9108958E
:101640008238910549F1B0F48133910509F458C00D
:1016500048F48932910509F44EC08A32910509F4A3
:1016600054C008958533910509F440C0893391052C
:1016700099F00895833E910529F138F4803E910553
:1016800091F0823E9105A1F00895863E9105F9F012
:10169000873E910531F108952091320320FD3AC033
:1016A00021FD38C008958091320380FD35C032C0DD
:1016B0008091320382FF32C08091320384FD30C0BA
:1016C00083EE39C08091320382FD28C0F5CF80912E
:1016D000320383FF27C08091320384FD21C087EE4F
:1016E0002AC08091320383FD1DC0F5CF8091320363
:1016F00085FD1AC01BC08091320385FD17C014C040
:101700008091320386FD14C015C08091320386FD9E
:1017100011C00EC080EE0FC089E30DC082EE0BC079
:1017200080E009C086EE07C089E205C085E303C0FA
:101730008AE201C081E390E008959091320392FF24
:101740000DC0282F2871283019F4877F846006C0C7
:10175000282F2471243011F48B7F886093FF0DC0F3
:10176000282F2871283119F4877E846106C0282F1C
:101770002471243111F48B7E886194FD877E089555
:10178000CF93DF93813020E8920768F0FB0122813C
:10179000222349F0EC010E94ED0BCE019F770E94BD
:1017A000350C0E94220C81E0DF91CF9108958CE0EE
:1017B00090E00E94F62490E0A0E0B0E0809328033F
:1017C00090932903A0932A03B0932B03089560916B
:1017D00028038CE090E00C9404250E94D21880939A
:1017E00035020E94E51880912803813071F048F09D
:1017F0008230D9F08430F9F486EE0E94B90F88E186
:1018000018C082EE0E94330E16C080EE0E94330E86
:1018100081EE0E94330E88E10E94B90F81EE0E9492
:10182000510F80EE0E94510F06C082EE0E94330ECF
:1018300087E50E94B90F8FE39CE90197F1F700C09B
:101840000000089580912803813021F038F0823023
:1018500029F007C08CE20E94B90F03C082EE0E94FB
:10186000510F809135020C94E2180F931F93CF9380
:10187000DF938C01CCE0D0E0C8010C2E02C096951D
:1018800087950A94E2F78F700E948D070E94B90F26
:101890002497CC3F8FEFD80779F7DF91CF911F9135
:1018A0000F9108950F931F93CF93DF93EC018B015A
:1018B000FB018281882319F1C23EFCE5DF07C1F0FC
:1018C00050F4C03EECE5DE0781F0C13EFCE5DF07E9
:1018D000B1F481E010C0C33E8CE5D80759F0C43E96
:1018E000ECE5DE0761F484E006C01092280305C031
:1018F00082E001C083E0809328030E94E70BB801D7
:10190000CE01DF91CF911F910F910C94C00B90935A
:101910003B0280933A020895E0913A02F0913B0233
:10192000309721F00190F081E02D099480E0089536
:10193000E0913A02F0913B02309799F02091130127
:10194000222359F02091320327FF07C0DC012C919C
:1019500011962C93119725E02C930280F381E02DB2
:1019600009940895E0913A02F0913B02309739F0E2
:1019700022E0DC012C930480F581E02D0994089588
:1019800020913802309139028217930771F09093B9
:10199000390280933802E0913A02F0913B0230978D
:1019A00021F00680F781E02D0994089520913602F8
:1019B000309137028217930771F09093370280932A
:1019C0003602E0913A02F0913B02309721F0008418
:1019D000F185E02D0994089585B7806885BF85B7A6
:1019E000806885BF089508950E94EC0C0C94F30C58
:1019F00081E008950E94DA1A0E94F5030C94711B8D
:101A0000CF92DF92EF92FF920F931F93CF93DF93CA
:101A1000CDB7DEB72B970FB6F894DEBF0FBECDBFA4
:101A20000E94C7040E94F80C811111C08FEF8983B6
:101A30008A831B820E94E31A8160782F9D838C83A6
:101A400049815A816B818D810E94E40D56C08DE3DE
:101A5000C82E82E0D82E00E010E0E02E802F0E94F9
:101A60000F05F60141916F01F42EF82631F40F5F56
:101A70001F4F0E30110589F7D9CF9091F80291FFD1
:101A800004C08B870E9415058B8520E030E04F2D28
:101A900050E0922FBA01022E02C0759567950A9404
:101AA000E2F760FF24C02E83EF8221E030E069017D
:101AB00002C0CC0CDD1C9A95E2F790E08C219D21B0
:101AC000892B09F420E028870E94E31A8160782F8F
:101AD0009A8789874E815F8168858A850E94E40D97
:101AE000F801E35CFD4F8081C826C08206C02F5FED
:101AF0003F4F2630310569F6BACF0E94041D109180
:101B00003C020E948C0C1817A1F00E948C0C809350
:101B10003C022B960FB6F894DEBF0FBECDBFDF910F
:101B2000CF911F910F91FF90EF90DF90CF900C9489
:101B30009E072B960FB6F894DEBF0FBECDBFDF9188
:101B4000CF911F910F91FF90EF90DF90CF9008956C
:101B5000DC0111962C9111978C91682F70E041E077
:101B600050E001C0440F8A95EAF712968C911297C3
:101B700030E0882329F080915B028823E9F006C0D9
:101B8000F901E55BFD4F90819423B1F086E0829FDF
:101B9000F001839FF00D1124E60FF71FEE0FFF1FDA
:101BA000EC5EFE4F808191818D939C93F901E55B02
:101BB000FD4F8081482B06C0F901E55BFD4F409544
:101BC0008081482340830895CF93DF93CDB7DEB75C
:101BD0002B970FB6F894DEBF0FBECDBF942F4F8367
:101BE000252F588769877A878B874A855B85452BA0
:101BF00021F02F3F09F59F3FF9F4DE01119686E0B1
:101C0000FD0111928A95E9F785E0FE013796019072
:101C10000D928A95E1F749815A816B817C818D8192
:101C20009E810E9475152B960FB6F894DEBF0FBEED
:101C3000CDBFDF91CF910895CE0107960E94A80DE8
:101C4000DCCFFC01808191810E94401892959F70A9
:101C5000963041F480915B0291E0892780935B028A
:101C600090935A020895882309F41AC18238C1F466
:101C70000E948C0C81FD14C169E380910201909156
:101C800003010E94361A0E949F182FEF81EE94E004
:101C9000215080409040E1F700C0000069E319C086
:101CA0008338F9F40E948C0C80FDFAC063E58091C2
:101CB0000201909103010E94361A0E949F182FEF93
:101CC00081EE94E0215080409040E1F700C0000098
:101CD00063E580910201909103010E94411A0C94E6
:101CE0009F188438C1F40E948C0C82FDD9C067E42F
:101CF00080910201909103010E94361A0E949F1860
:101D00002FEF81EE94E0215080409040E1F700C039
:101D1000000067E4DECF9CEF980F913A40F4682F03
:101D200080910201909103010E94361AD8CF90E26F
:101D3000980F983050F4877091E001C0990F8A9500
:101D4000EAF7892F0E94D518CACF9BE5980F9330E8
:101D500070F4853A29F0863A31F083E890E005C0C6
:101D600081E890E002C082E890E00C94C00C98E515
:101D7000980F973108F08EC0883A09F445C0893A27
:101D800009F445C08A3A09F445C08B3A09F445C0C4
:101D90008C3A09F445C08B3B09F445C08C3B09F4EF
:101DA00045C08D3A09F445C0803B09F445C08E3AE0
:101DB00009F445C08F3A09F445C0813B09F445C098
:101DC000823B09F445C0833B09F445C0843B09F4D8
:101DD00045C0853B09F445C0863B09F445C0873BB7
:101DE00009F445C0883B09F445C0893B09F445C066
:101DF0008D3B09F445C08E3B09F445C08A3B09F48C
:101E000045C080E090E044C082EE90E041C089EEA1
:101E100090E03EC08AEE90E03BC085EB90E038C099
:101E200086EB90E035C083EB90E032C084EB90E02D
:101E30002FC087EB90E02CC08CEC90E029C08DEC9B
:101E400090E026C083E891E023C08AE891E020C0BA
:101E500082E991E01DC084E991E01AC081E292E03C
:101E600017C083E292E014C084E292E011C085E2E0
:101E700092E00EC086E292E00BC087E292E008C0DA
:101E80008FE690E005C080E790E002C08AE292E031
:101E90000C94D60C803F20F00E940C1C0C94F91C72
:101EA0000895882309F464C0823879F40E948C0C68
:101EB00081FF5EC069E380910201909103010E945D
:101EC000361A0E949F1869E310C08338B1F40E944B
:101ED0008C0C80FF4DC063E580910201909103015D
:101EE0000E94361A0E949F1863E58091020190912A
:101EF00003010E94411A0C949F18843879F40E94BF
:101F00008C0C82FF35C067E480910201909103013F
:101F10000E94361A0E949F1867E4E7CF9CEF980F43
:101F2000913A10F4682FE1CF90E2980F983050F476
:101F3000877091E001C0990F8A95EAF7892F0E9476
:101F4000DB18D9CF9BE5980F933020F480E090E028
:101F50000C94C00C98E5980F973120F480E090E045
:101F60000C94D60C803F20F00E94741C0C94F91C39
:101F70000895CF93C82F0E94330E8C2FCF910C94CD
:101F8000510F882321F00E94D5180C949F180895B2
:101F9000882321F00E94DB180C949F1808958F92DB
:101FA0009F92AF92BF92DF92EF92FF920F931F9397
:101FB000CF93DF937C01D62FC72FFC0105810295BB
:101FC0000F70128111110E94F5180E949818882331
:101FD00079F0112369F080E28D0F883048F082E0BB
:101FE0000E9481180E94981891E0D82ED92601C02D
:101FF000D12CAC2EA2948FE0A822B12CF501EA5886
:10200000FF4F0C94DC248C2F807FCF70882311F03D
:10201000C295C07F112399F0CC2309F4C8C180E296
:102020008D0F883010F0D11104C08C2F0E94D5186C
:1020300003C08C2F0E94E8180E949F18B8C18D2FF2
:102040000E94510FCC2309F42EC280E28D0F8830FC
:1020500010F0D11104C08C2F0E94DB1803C08C2F0C
:102060000E94EE180E949F181EC28C2F807FCF7096
:10207000803211F0C295C07FDD2319F0D130C9F054
:1020800021C0112371F0002341F0013031F40E948E
:102090000E198C2B0E94081906C20E940E198C2B57
:1020A0003FC1002319F0013009F4FDC10E940B1952
:1020B00011C0112321F0023008F0F5C107C0011151
:1020C000F2C108C0112321F0011171C18C2F28C168
:1020D00001117EC18C2F2AC18C2F86958695837025
:1020E00090E0009719F0019761F0DDC1112321F014
:1020F0008D2F9C2F937002C080E090E00E94C00C56
:10210000E2C1112321F08D2F9C2F937002C080E03B
:1021100090E00E94D60CD7C11123F9F0D53F51F0C1
:10212000D63F71F0D43FA9F480912C0390912D03F8
:1021300081600BC080912C0390912D03826005C0BB
:1021400080912C0390912D03846090932D038093B4
:102150002C038D2F0E940C1C1EC0D53F51F0D63F82
:1021600071F0D43FA9F480912C0390912D038E7FC0
:102170000BC080912C0390912D038D7F05C0809121
:102180002C0390912D038B7F90932D0380932C0330
:102190008D2F0E94741C0E94F91C95C18C2F837096
:1021A00009F050C011118BC18D2F829586958770D3
:1021B000880F880F9D2F9F70892E912CA12CB12CF8
:1021C000082E04C0880C991CAA1CBB1C0A94D2F7C8
:1021D000D4FF14C00FE010E020E030E0B901A80106
:1021E00004C0440F551F661F771F8A95D2F7CB0195
:1021F000BA01609570958095909503C060E070E09D
:10220000CB01C695C695C370D0E0C230D10561F050
:10221000C330D10581F0682979298A299B29219722
:1022200071F00E94BA164BC1682979298A299B2925
:102230000E94CC1644C10E94BA16C501B4010E9486
:10224000A8163DC1112319F08C2F817001C086950D
:10225000882309F434C18D2F829586958770880F65
:10226000880F9D2F9F70892E912CA12CB12C082EA8
:1022700004C0880C991CAA1CBB1C0A94D2F7D4FF7A
:1022800014C00FE010E020E030E0B901A80104C064
:10229000440F551F661F771F8A95D2F7CB01BA01ED
:1022A000609570958095909503C060E070E0CB01DB
:1022B000C695C695C3704C2F50E04230510569F069
:1022C0004330510589F0682979298A299B294130B1
:1022D000510571F00E947F17F2C0682979298A2977
:1022E0009B290E949117EBC00E947F17C501B40182
:1022F0000E946D17E4C08D2F90E0FC01E05EF109B3
:10230000E531F10508F04FC0EA57FF4F0C94DC248B
:10231000DF708C2F8F71112331F00E9406178D2FE3
:102320000E94C10FC0C00E9427178D2F0E94C80FA6
:10233000BAC0112339F00111B6C08C2F8F710E94E1
:102340004C17B1C0023008F0AEC0F7CF112339F0FE
:102350008C2F8F710E940617A6C01123C9F38C2FF2
:102360008F710E9427179FC0112329F08C2F8F7126
:102370000E94F11698C00E94EC1695C0112349F0F6
:10238000CF718C2F0E94061763E08C2F0E94781863
:102390008AC081E00E948118023008F484C082E083
:1023A0000E94811880C0112331F0002389F28D2F03
:1023B0000E94330E78C0002391F2D93349F45FEFC5
:1023C00067EE73E0515060407040E1F700C00000DC
:1023D0008D2F0E94510F67C04C2F4F706D2FC7017A
:1023E0000E94D5060E9419166EC0D23FB1F028F4A3
:1023F000D03F49F0D13FF9F028C0D43FB9F058F0B0
:10240000D53F71F022C0112309F447C090915B02BF
:1024100081E0892708C081E0182710935B023DC046
:1024200011113BC081E080935B0237C0111135C0B0
:1024300010925B0232C0112329F080915A02882346
:1024400029F329C0002311F328C080915A020023E8
:10245000C1F0882341F090915B0281E0892780934D
:102460005B0210925A028D2F112319F00E94330E35
:1024700014C00E94510F86E0F70111928A95E9F786
:102480000CC0882351F0111108C090915B0281E0CB
:10249000892780935B0210925A024C2F4F706D2F48
:1024A000C7010E944809F8E0AF16B10441F05CF0A2
:1024B0004AE0A41AB10852E0A516B10420F40E9423
:1024C0008C0C0E949E07DD20E1F00E94741880FDB4
:1024D00018C0F70112820E946E180E940617C701E9
:1024E0000E948D120E946E18DF91CF911F910F9163
:1024F000FF90EF90DF90BF90AF909F908F900C94E3
:102500002717DF91CF911F910F91FF90EF90DF90F0
:10251000BF90AF909F908F9008950F931F93CF938C
:10252000DF93EC01888199812B813C81232BB9F0C9
:102530009F3F11F48F3F99F0CE010E94B00788238E
:1025400071F0688179818A810E944B188C010E9408
:10255000A3170E94A516B801CE010E94CF0FDF91EC
:10256000CF911F910F9108950E94F5180E940519AF
:102570000E949F180E949F1D0E94F91C80E090E01D
:102580000E94C00C80E090E00C94D60C8091020177
:10259000909103010E944C1A0C94B4120E94E51809
:1025A0000C94C6120E944018E92FE295EF70F0E0FB
:1025B0003297EE30F105B0F4E556FF4F0C94DC2471
:1025C000803F91F018F4803E68F40EC0843F51F4CF
:1025D0000BC0803E48F0813F29F406C093FB88275A
:1025E00080F9089580E0089581E00895CF93DF9306
:1025F00000D000D01F92CDB7DEB70F900F900F9094
:102600000F900F90DF91CF910895CF93DF9300D07B
:1026100000D000D0CDB7DEB726960FB6F894DEBF57
:102620000FBECDBFDF91CF9108951F93CF93DF935E
:10263000C0915C0216E080915D02C81799F0D0E06D
:102640001C9FF0011D9FF00D1124E25AFD4F4081A7
:10265000518162817381848195810E940513219645
:10266000C770E9CFDF91CF911F91089540918E02FD
:1026700050918F026091900270919102809192022C
:10268000909193020C9405138091930282958F7020
:1026900009F054C080919002882309F44FC08091C2
:1026A0005C02A0915D0260918E0270918F02409158
:1026B000910250919202B6E08A1709F43FC090E06F
:1026C00041155105C1F17F3F11F46F3FA1F1B89F52
:1026D000F001B99FF00D1124E25AFD4F21817213D0
:1026E0002AC02081621327C02281211124C02381A6
:1026F00034812417350710F421503109241B350B80
:10270000253B3105C0F4209193022F702061209366
:10271000930226E0289FF001299FF00D1124ED5926
:10272000FD4F80818F70806180838EE892E00E94EF
:102730008D120C94151301968770BECF0895CF9219
:10274000DF92EF92FF920F931F93CF93DF93CDB75A
:10275000DEB762970FB6F894DEBF0FBECDBF8C0117
:1027600085E0F801DE011D9601900D928A95E1F752
:10277000D8014C9111965C91119712966C91129719
:102780001396CD90DC90149730918E0270918F0249
:102790008091910290919202009709F46BC17F3F62
:1027A00019F43F3F09F466C1E0909002EE2009F46D
:1027B000C0C020919302C816D90628F0F601E81B84
:1027C000F90BCF0104C0809590958C0D9D1DFF24C1
:1027D000F394853B910578F0F12C207F09F0C6C079
:1027E0007C2DD98AC88A89890E94F6128EE892E0E7
:1027F0000E948D12B1C0822F807F09F046C07513F0
:1028000014C0341312C0611110C02F7020612093C6
:1028100093020E9436138EE892E00E948D128091FE
:102820009302D80115968C932EC0CD2819F15F3FE5
:1028300011F44F3FF9F0F62E61111CC080915C023B
:1028400020915D0236E0821709F45AC090E0389F6B
:10285000F001399FF00D1124E25AFD4F7181571399
:1028600006C07081471303C07281711103C00196C5
:102870008770E9CFF62E662309F427C18091930271
:10288000816080939302F12C20C1751308C034132A
:1028900006C0611104C080919302D801C3C04D8766
:1028A0005E878D859E856A8B0E94D2126A898823F5
:1028B000E1F16623D1F120919302822F82958F70EE
:1028C00090E0029774F080918E0290918F02988729
:1028D0008F831986DB86CA862C87CE0107960E94D5
:1028E0008D1286E0F801AEE8B2E001900D928A9573
:1028F000E1F70E9444130E943613FF24F394E5C0CD
:102900004D875E878D859E850E944018292F2295D0
:102910002F7030E0223031050CF0CBC09F7009F0F1
:10292000C5C0805E883008F4D0C0C8010E948D12F6
:10293000E4CFC816D90608F453C0F601E81BF90B1A
:10294000CF01853B910508F450C0F12C7C2DD98A2C
:10295000C88A89890E94F612EEE8F2E086E0DF017B
:102960001D928A95E9F70E943613AFC0751314C003
:10297000341312C0611110C080919302F801858355
:10298000C8010E948D1286E0EEE8F2E0DF011D92A0
:102990008A95E9F7FE2C99C04D875E878D859E85C7
:1029A0006A8B0E94D2126A89882309F4BECF6623FB
:1029B00009F4BBCF20919302822F82958F7090E013
:1029C00002970CF48ECF80918E0290918F029A83A1
:1029D00089831B82DD82CC822E83CE0101967FCF3C
:1029E000809590958C0D9D1DACCFF62E662309F435
:1029F0009CCF75132EC034132CC02091930220FD60
:102A00001FC0822F82958F70D9F0D80115962C9314
:102A100015978F3049F08F5F982F9295907F822F76
:102A20008F70892B15968C93C8010E948D1286E0B9
:102A3000F801AEE8B2E001900D928A95E1F793CFEC
:102A400086E0F801AEE8B2E001900D928A95E1F7D8
:102A50003CC04D875E878D859E850E94D212811174
:102A600040CF80919302816080939302C8010E94BD
:102A70008D122BC0662309F458CF4D875E878D8554
:102A80009E850E94D212F82E882309F44ECF86E04C
:102A9000F801AEE8B2E001900D928A95E1F78EE878
:102AA00092E00E94210E0E9444135DCF811139CF24
:102AB0000CC0243031050CF038CF9F7009F431CFB1
:102AC000F8019581907F09F02CCF8F2D62960FB67B
:102AD000F894DEBF0FBECDBFDF91CF911F910F9154
:102AE000FF90EF90DF90CF9008951F93CF93DF93E7
:102AF000CDB7DEB72C970FB6F894DEBF0FBECDBFB3
:102B00004F83588769877A878B879C87CE01079682
:102B10000E949F13882369F08F8198852A853B85C1
:102B2000232BF1F19F3F09F063C08F3F09F060C094
:102B300037C086E0FE013796DE01119601900D92B6
:102B40008A95E1F76F817885EA85FB85309741F1B9
:102B50007F3F11F46F3F21F120915D0230E0C90108
:102B600001968770992740915C0250E08417950781
:102B700009F447C069837A83FD83EC8396E0929FD2
:102B8000D001939FB00D1124A25ABD4FFE01319682
:102B900001900D929A95E1F780935D020E941513C2
:102BA00016E080915C0290915D028917C1F1189F37
:102BB000C0011124825A9D4F0E949F13882379F1EE
:102BC000E0915C021E9FF0011124E25AFD4F40810A
:102BD000518162817381848195810E940513809166
:102BE0005C0290E001968770992780935C02D9CFB0
:102BF0004F81588569857A858B859C850E94051350
:102C0000CFCF0E94CE1210925D0210925C02EEE8CD
:102C1000F2E086E0DF011D928A95E9F7C1CF2C969C
:102C20000FB6F894DEBF0FBECDBFDF91CF911F91DD
:102C30000895EF92FF920F931F93CF93DF938C0130
:102C4000892B09F46CC0F12CEE24E394E801219661
:102C5000F8018491843740F4843008F051C0813009
:102C600081F0823019F15BC0853709F444C0A8F1C6
:102C70009CE7980F903708F052C08F770E94510F51
:102C800041C00E5F1F4FFE01C49180E28C0F88305F
:102C900048F4C7708E2D01C0880FCA95EAF70E94CC
:102CA000F81814C08C2F0E94330E2DC00E5F1F4FDA
:102CB000FE01C49180E28C0F883058F4C7708E2DCD
:102CC00001C0880FCA95EAF70E94FE180E949F185B
:102CD0001AC08C2F0E94510F16C00E5F1F4FFE01AD
:102CE000C491CC2381F08FE99FE00197F1F700C0F8
:102CF0000000C150F6CF0E5F1F4FFE01F49003C0DD
:102D00000E94330E8E018F2D882309F49FCFEFE9A7
:102D1000FFE03197F1F700C000008150F5CFDF915F
:102D2000CF911F910F91FF90EF90089508950C940B
:102D300096160E9497166093CF027093D0028093EC
:102D4000D1029093D2020C94B41208950C94991667
:102D50000F931F930091CF021091D0022091D102C6
:102D60003091D202602B712B822B932B1F910F91EC
:102D70000C9499160F931F930091CF021091D002DB
:102D80002091D1023091D2026023712382239323B8
:102D90001F910F910C9499160F931F930091CF02DE
:102DA0001091D0022091D1023091D2026027712778
:102DB000822793271F910F910C9499160C94EF067C
:102DC0000E94DE166093CB027093CC028093CD02FA
:102DD0009093CE020C94B41260E070E0CB010C949E
:102DE000E0160F931F9341E050E060E070E08A012D
:102DF0009B0104C0000F111F221F331F8A95D2F7B9
:102E0000C901B8011F910F910C94E0160F931F9305
:102E100041E050E060E070E004C0440F551F661FC1
:102E2000771F8A95D2F78091CB029091CC02A09126
:102E3000CD02B091CE028A019B01082B192B2A2BBF
:102E40003B2BC901B8011F910F910C94E0160F9311
:102E50001F9341E050E060E070E004C0440F551F54
:102E6000661F771F8A95D2F74095509560957095AB
:102E70008091CB029091CC02A091CD02B091CE0274
:102E80008A019B01082319232A233B23C901B80186
:102E90001F910F910C94E0160F931F9341E050E0A7
:102EA00060E070E004C0440F551F661F771F8A95CD
:102EB000D2F78091CB029091CC02A091CD02B0913B
:102EC000CE028A019B01082719272A273B27C9011F
:102ED000B8011F910F910C94E0160F931F9300916E
:102EE000CB021091CC022091CD023091CE02602B0A
:102EF000712B822B932B1F910F910C94E0160F9343
:102F00001F930091CB021091CC022091CD02309101
:102F1000CE0260237123822393231F910F910C947F
:102F2000E0160F931F930091CB021091CC022091D9
:102F3000CD023091CE0260277127822793271F91FF
:102F40000F910C94E0160895292F220F920F990FDC
:102F5000890FA82FA695A695A695877051E001C068
:102F6000550F8A95EAF785E0A89FD001112420E04B
:102F700030E070E0F901EA0FFB1FEC56FD4F408195
:102F8000CB01022E02C0969587950A94E2F78170D4
:102F90009927819584278523842780832F5F3F4F3E
:102FA0002530310539F70895292F220F920F990FF7
:102FB000890F682F669566956695982F977085E0BE
:102FC000689FB001112440E050E080E0FA01E60F74
:102FD000F71FEC56FD4F208130E0092E02C03695D8
:102FE00027950A94E2F721703327042E01C0220F9F
:102FF0000A94EAF7822B4F5F5F4F4530510531F756
:103000000895CF92DF92EF92FF920F931F93CF9389
:10301000DF938C01C090CF02D090D002E090D1021B
:10302000F090D2028091CB029091CC02A091CD027F
:10303000B091CE02C82AD92AEA2AFB2ACFE1D0E0F1
:10304000D701C6010C2E04C0B695A7959795879514
:103050000A94D2F780FF06C0B8018C2F0E94630942
:10306000019721F4219760F780E001C08C2FDF9158
:10307000CF911F910F91FF90EF90DF90CF90089527
:10308000CF93DF93EC010E940118BE010E946309F7
:10309000DF91CF9108951F93CF93DF93EB01909130
:1030A0005902992321F0CB010E94401813C08823B4
:1030B00049F0CB010E940118182F682FCE010E9401
:1030C000A41704C0CB010E94D417182FBE01812F72
:1030D0000E946309DF91CF911F9108958091D302DF
:1030E00085958595859508958091D302877008957B
:1030F00098E0899F90011124262B2093D3020C94F1
:1031000006172091D302809582238093D302982FB3
:10311000977069F430E0482F082E000C550B2417E7
:10312000350729F08595859585950C942717089581
:103130009091D302977081E009F480E00895E091C6
:103140000201F09103018091F7028083E091020176
:10315000F091030190818091F602892B8083E091A8
:103160000201F091030190818091F502892B808307
:103170008091D402882381F0E0910201F091030153
:103180009081892B808380910201909103010E949C
:10319000D11981111092D402809102019091030102
:1031A0000C94980C8091F70208959091F702892B66
:1031B0008093F702089580959091F7028923809378
:1031C000F70208958093F70208951092F702089588
:1031D0009091F602892B8093F60208958095909144
:1031E000F60289238093F60208951092F60208955C
:1031F0009091F502892B8093F50208958095909126
:10320000F50289238093F50208951092F50208953E
:103210008093D40208951092D40208958091D4022C
:103220000895CF92DF92EF92FF926C01EE24FF247B
:10323000C114D104E104F10421F0C701B60120E179
:1032400001C020E0C72ED82EE92EFF24C114D104DE
:10325000E104F10419F0285FC701B6016B017C019C
:1032600054E0F694E794D794C7945A95D1F7C114D3
:10327000D104E104F10419F02C5FC701B6016B0120
:103280007C0142E0F694E794D794C7944A95D1F72D
:10329000C114D104E104F10419F02E5FC701B60195
:1032A000DC01CB01B695A79597958795892B8A2B3D
:1032B0008B2B09F02F5F822FFF90EF90DF90CF9044
:1032C000089580E090E00E94FE2421E08D3E9E4F14
:1032D00009F020E0822F089582E090E00C94F6241B
:1032E00083E090E00C94F62484E090E00C94F624C3
:1032F000682F84E090E00C940425AB01BC018FE0C2
:1033000090E00C941625AB01BC0183E190E00C9495
:10331000162560E070E0CB010C94831960E070E04A
:10332000CB010E947D190C9489196DEE7EEF80E02F
:1033300090E00E94222560E082E090E00E94042557
:1033400060E083E090E00E9404251092CF0210928A
:10335000D0021092D1021092D20260E084E090E09C
:103360000E94042560E085E090E00E94042560E072
:1033700086E090E00E9404256FEF87E090E00E94D5
:10338000042540E050E0BA0188E090E00E94162554
:1033900060E08DE090E00E9404250C948E190C945E
:1033A0009519FC01329680911301882331F08091A8
:1033B000320387FF02C09EE101C096E080E0915099
:1033C00028F021912223D9F38F5FF9CF08959C0132
:1033D000FC0132969FEF80E04191461789F09F3FB4
:1033E00019F4411101C0982F8F5F8630A9F79F3FD4
:1033F00039F0F901E90FF11D97FDFA9562830895FF
:103400000895FC01329608962081261301C010828F
:103410003196E817F907C1F70895262F26952695C6
:1034200026952E3168F4FC01E20FF11D677021E052
:1034300030E001C0220F6A95EAF78281282B2283AF
:103440000895262F2695269526952E3170F4FC0199
:10345000E20FF11D677021E030E001C0220F6A9594
:10346000EAF7209582812823228308952091130171
:10347000222329F02091320327FD0C940D1A0C947D
:10348000E71920911301222329F02091320327FD0F
:103490000C94211A0C94011A20911301FC0132960C
:1034A000222331F08091320387FF02C08EE101C0F8
:1034B00086E0DF011D928A95E9F7089508950C943E
:1034C0005E1A0E945F1A80913803843049F110928D
:1034D000F90220E488E190E00FB6F894A895809373
:1034E00060000FBE2093600080E00E949E070E9453
:1034F0005F1A83B7817F846083BF83B7816083BF96
:103500007894889583B78E7F83BF0FB6F894A8957B
:1035100080916000886180936000109260000FBE0F
:1035200008950895CF930E941E040E94C7040E942C
:10353000911AC0E08C2F0E940F05811104C0CF5F4B
:10354000CE30C1F701C081E0CF91089508950C9469
:10355000A61A0E94CE120E948C0C0E949E070C9408
:10356000A71A1F920F920FB60F9211248F939F9359
:10357000AF93BF938091F902811113C080912E0304
:1035800090912F03A0913003B09131034196A11D7A
:10359000B11D80932E0390932F03A0933003B0931B
:1035A0003103BF91AF919F918F910F900FBE0F90FC
:1035B0001F90189582E084BD93E095BD9AEF97BD6A
:1035C00080936E0008952FB7F89480912E03909108
:1035D0002F03A0913003B09131032FBF0895CF92F4
:1035E000DF92EF92FF920F931F932FB7F8944091C1
:1035F0002E0350912F0360913003709131032FBF40
:103600006A017B01EE24FF248C0120E030E0C0162B
:10361000D106E206F30610F4415051099A01281B25
:10362000390BC9011F910F91FF90EF90DF90CF9060
:10363000089578941F920F920FB60F9211248F93D2
:103640009F93AF93BF9380912E0390912F03A091EE
:103650003003B09131030196A11DB11D80932E035B
:1036600090932F03A0933003B0933103BF91AF9198
:103670009F918F910F900FBE0F901F901895F89407
:1036800081E08093E00080E28093D800E9ECF0E0F4
:1036900010828FE19EE40197F1F700C000001DBA8F
:1036A000109268001CBC10BE1FBA10927A001092D3
:1036B0006E0010926F0010927100109272001082D2
:1036C000ECEBF0E0108214B817B81AB81DB810BAB5
:1036D000108215B818B81BB81EB811BA0C94003F68
:1036E00008950E946119811102C00E94CF190E94A1
:1036F0006C198093F8020E94741990E09093330340
:10370000809332030E947019682F70E080E090E08F
:103710000C94A6168091FD0280FF0BC060910701FA
:1037200085E0689FB001112475956795759567953B
:103730002BC081FF09C06091070185E0689FB0013F
:1037400011247595679520C082FF07C0609107011D
:1037500085E0689FB001112417C09091FE02992363
:10376000D1F060910601961788F72091070185E056
:10377000289F90011124929FA001939F500D112426
:1037800070E0CA010E94C8246038710540F46115D8
:10379000710539F002C065E070E0862F08958FE76B
:1037A000089581E008958091FD0280FF08C0609136
:1037B000050170E0759567957595679521C081FF46
:1037C00006C06091050170E07595679519C082FF8C
:1037D00004C06091050170E010C09091FE02992331
:1037E000C1F0609104019617A0F780910501899FAF
:1037F000C001112470E00E94C8246038710528F4CB
:103800006115710521F0862F08958FE7089581E0F5
:10381000089561E070E0F4CF803F21F40E948A1B9C
:10382000819504C0813F29F40E948A1B8093020382
:103830000895823F21F40E948A1B819504C0833F32
:1038400029F40E948A1B809301030895893F19F48B
:103850000E94D31B05C08A3F31F40E94D31B81957F
:103860008093030308958B3F21F40E94D31B81951D
:1038700004C08C3F29F40E94D31B80930403089555
:10388000843F21F480910003816017C0853F21F4BB
:1038900080910003826011C0863F21F48091000373
:1038A00084600BC0873F21F480910003886005C0CD
:1038B000883F31F480910003806180930003089574
:1038C0008D3F21F48091FD0281600BC08E3F21F479
:1038D0008091FD02826005C08F3F29F48091FD0236
:1038E00084608093FD020895803F39F48091020343
:1038F00087FF6CC01092020369C0813F29F4809158
:1039000002031816BCF362C090910103823F29F4B0
:1039100097FF5CC01092010359C0833F19F4191638
:10392000CCF354C0893F41F48091030318160CF086
:103930004DC0109203034AC08A3F29F480910303CB
:1039400087FF44C0F6CF8B3F39F48091040387FF93
:103950003DC0109204033AC08C3F29F480910403C7
:103960001816BCF333C0843F21F4809100038E7F8E
:1039700017C0853F21F4809100038D7F11C0863FE1
:1039800021F4809100038B7F0BC0873F21F480914D
:103990000003877F05C0883F31F4809100038F7E4C
:1039A0008093000313C08D3F21F48091FD028E7F30
:1039B0000BC08E3F21F48091FD028D7F05C08F3FAB
:1039C00029F48091FD028B7F8093FD028091010399
:1039D00081110EC08091020381110AC080910303FE
:1039E000811106C080910403811102C01092FE0271
:1039F00008958FEF92E00E94B20C0E94E31A909318
:103A0000FB028093FA0208951F93CF93DF93809176
:103A1000FA029091FB020E94EF1AAC019091FE0213
:103A2000992321F02091080130E006C02091FC028A
:103A30008AE0289F900111244217530708F47BC0A5
:103A400080910103C0910203D091030310910403FC
:103A5000811107C0C1116BC0D11169C0111167C0BC
:103A60006AC09F3F19F09F5F9093FE02181624F4DE
:103A70000E948A1B809301038091010387FF05C088
:103A80000E948A1B8195809301031C1624F40E94D6
:103A90008A1B809302038091020387FF05C00E9466
:103AA0008A1B819580930203309101033323E1F057
:103AB000209102032223C1F045EB3403C0011124FD
:103AC000892F990F990B009709F481E080930103E6
:103AD00035EB2303C0011124892F990F990B00970F
:103AE00009F481E0809302031D1624F40E94D31B85
:103AF000809303038091030387FF05C00E94D31BBB
:103B0000819580930303111624F40E94D31B8093A4
:103B100004038091040387FF05C00E94D31B819595
:103B200080930403DF91CF911F910C94F91C9F3F68
:103B300009F099CFA1CFDF91CF911F910895EFEFB9
:103B4000F2E086E0DF011D928A95E9F71092FE020D
:103B50001092FD0208958091250308950F931F93FD
:103B6000CF93DF9300D01F92CDB7DEB78C010E94B8
:103B70000F20823011F0843021F584E089831B838B
:103B80000A8382E08093E9008FEF9091E8008150F2
:103B900095FD06C095ED9A95F1F700008111F5CFDE
:103BA0008091E80085FF0DC040E050E063E070E0E8
:103BB000CE0101960E942C208091E8008E778093A0
:103BC000E8000F900F900F90DF91CF911F910F9110
:103BD0000895CF93DF9300D01F92CDB7DEB7209129
:103BE0003803243031F523E02983805891099B83E1
:103BF0008A8382E08093E9008FEF9091E800815002
:103C000095FD06C095ED9A95F1F700008111F5CF6D
:103C10008091E80085FF0DC040E050E063E070E077
:103C2000CE0101960E942C208091E8008E7780932F
:103C3000E8000F900F900F90DF91CF910895CF93F0
:103C4000DF93EC010E940F20823011F08430F9F4F0
:103C500082E08093E9009FEF8091E800915085FD1C
:103C600006C085ED8A95F1F700009111F5CF80919E
:103C7000E80085FF0CC040E050E066E070E0CE0157
:103C80000E942C208091E8008E778093E800DF91DD
:103C9000CF910895CF93DF93EC010E940F208230E3
:103CA00011F08430D9F580911301882339F0809187
:103CB000320387FF03C060E282E002C068E081E077
:103CC0008093E9008FEF9091E800815095FD06C048
:103CD00095ED9A95F1F700008111F5CF8091E800FC
:103CE00085FF1CC080911301811105C040E050E0A8
:103CF00068E070E003C070E040E050E0CE010E9458
:103D00002C208091E8008E778093E80080E2FE010D
:103D1000A5E0B3E001900D928A95E1F7DF91CF9194
:103D2000089580913703811109C00E94C1210E942A
:103D30001E228091E20084608093E2000895109238
:103D400037030895089508950C94A91A42E061EC90
:103D500081E00E943B2142E261EC82E00C943B2135
:103D600080913A03833009F453C030F4813071F00C
:103D7000823009F48CC008958A3009F478C08B3001
:103D800009F45EC0893009F09AC020C080913903DF
:103D9000813A09F094C08091E800877F8093E80021
:103DA00080913D0390913E03892B21F460E285E0F0
:103DB00093E003C060E080E090E070E00E94772034
:103DC0008091E8008B778093E80008958091390313
:103DD000813209F074C080913D0390913E030297B7
:103DE00008F06DC08091E800877F8093E8008091A3
:103DF000E80082FD05C0809138038111F8CF5FC0D3
:103E00008091F100809325038091E8008B7753C067
:103E100080913903813A09F052C080913D0390911D
:103E20003E03892B09F04BC08091E800877F809387
:103E3000E8008091E80080FFFCCF8091130136C03C
:103E4000809139038132D9F580913D0390913E03F1
:103E5000892BA9F58091E800877F8093E8000E9474
:103E6000702180913B03809313010C94CE128091BA
:103E70003903813221F58091E800877F8093E80043
:103E80000E94702180913C038093260308958091C5
:103E90003903813AA1F48091E800877F8093E8009C
:103EA0008091E80080FFFCCF809126038093F10091
:103EB0008091E8008E778093E8000C94702108953B
:103EC00084B7877F84BF0FB6F894A895809160006F
:103ED000886180936000109260000FBE80E880933C
:103EE0006100109261000E94F40C0E94C1210E94A6
:103EF0001E228091E20084608093E20078940E9408
:103F0000AD240E94FA0C89E091E00E94870C809118
:103F10003803853069F40E94611A80913603882342
:103F2000B1F30E94921A882391F30E941620EFCFDA
:103F30000E94000DECCF0C949D1F292F33272330B6
:103F40003105C9F064F42130310581F022303105AA
:103F500009F04CC08BE390E02EE735E04BC02132F6
:103F6000310521F12232310589F140C082E190E032
:103F700029EB35E03FC099278130910571F02CF491
:103F8000892BA1F5EAE7F5E00DC08230910541F0FB
:103F9000039761F5E4E4F5E005C0E2E6F5E002C070
:103FA000EAE4F5E0849190E09F0124C06115710579
:103FB00041F061307105D1F489E090E029EA35E003
:103FC00019C089E090E020E935E014C06115710561
:103FD00041F06130710551F480EC90E02BEC35E05C
:103FE00009C080E490E02BE836E004C080E090E077
:103FF00020E030E0FA013183208308950895CF93C3
:10400000C82F0E94FE1FC0932703CF91089580916F
:104010003803843011F081E0089582E008958091A2
:104020002703811102C00C940720089580E189BD07
:1040300082E189BD09B400FEFDCF8091D8008F7D5B
:104040008093D8008091E00082608093E0008091AE
:10405000E00081FDFCCF0895CF92DF92EF92FF92B6
:104060000F931F93CF93DF93EC018B016A010E94A2
:104070008F21811133C0C114D10439F0F601808140
:104080009181081B190BC80FD91FE12CF12C0115C8
:10409000110519F18091E80085FD16C08091E800B6
:1040A0008E778093E800C114D10449F0F601808135
:1040B0009181E80EF91EF182E08285E00FC00E9436
:1040C0008F21882321F30AC089918093F100015048
:1040D0001109FFEFEF1AFF0ADACF80E0DF91CF91ED
:1040E0001F910F91FF90EF90DF90CF900895209156
:1040F0003F03309140032617370748F061157105DB
:1041000039F42091E8002E772093E80001C0B9012E
:1041100040E061157105A9F120913803222309F4CB
:1041200043C0253009F442C02091E80023FD40C07F
:104130002091E80022FD32C02091E80020FFE9CF65
:104140004091F3002091F20030E0342BFC01CF01CC
:104150006115710559F02830310540F48191809343
:10416000F100615071092F5F3F4FF1CF41E02830DE
:10417000310509F040E02091E8002E772093E80017
:10418000C8CF4111C9CF0AC080913803882361F09C
:10419000853061F08091E80083FD0AC08091E800DD
:1041A00082FFF2CF80E0089582E0089583E00895D1
:1041B00081E0089520913F0330914003261737078F
:1041C00048F06115710539F42091E8002E772093AD
:1041D000E80001C0B901FC0120E06115710591F111
:1041E00080913803882309F440C0853009F43FC02A
:1041F0008091E80083FD3DC08091E80082FD2FC0E2
:104200008091E80080FFE9CF2091F3008091F200D7
:1042100090E0922B6115710559F08830910540F4BA
:1042200024912093F1003196615071090196F2CFEB
:1042300021E0089709F020E08091E8008E778093D4
:10424000E800CBCF2111CCCF0AC08091380388235E
:1042500061F0853061F08091E80083FD0AC08091B3
:10426000E80082FFF2CF80E0089582E0089583E0C5
:10427000089581E00895982F973058F59093E900BC
:10428000981739F07091EC002091ED005091F000FA
:1042900003C0242F762F50E021FF19C03091EB008E
:1042A0003E7F3093EB003091ED003D7F3093ED0089
:1042B0003091EB0031603093EB007093EC00209371
:1042C000ED005093F0002091EE0027FF07C09F5FA4
:1042D000D3CF8F708093E90081E0089580E0089546
:1042E0008091390387FF11C08091E80082FD05C0ED
:1042F000809138038111F8CF11C08091E8008B774D
:104300000BC080913803882349F08091E80080FF3A
:10431000F8CF8091E8008E778093E800089520918F
:10432000E4003091E50095E64091EC00842F817027
:1043300040FF22C08091E80080FD1CC080913803BE
:10434000882391F0853091F08091EB0085FD10C0BD
:104350004091E4005091E5004217530729F39A0178
:10436000915011F784E0089582E0089583E0089564
:1043700081E0089580E008954091E80042FFDECF9B
:1043800008950E942F220E943722E0EEF0E0808103
:1043900081608083E8EDF0E080818F77808319BCB5
:1043A000A7EDB0E08C918E7F8C9380818F7E80838F
:1043B0001092370308950F931F93CF93DF930E94BA
:1043C0002F220E943722C8EDD0E088818F77888322
:1043D00088818068888388818F7D888319BC10924A
:1043E000380310923403109236031092350300EE16
:1043F00010E0F80180818B7F8083888181608883D1
:1044000042E060E080E00E943B21E1EEF0E080814C
:104410008E7F8083E2EEF0E0808181608083808106
:1044200088608083F80180818E7F808388818061AD
:104430008883DF91CF911F910F910895E8EDF0E00F
:1044400080818F7E8083E7EDF0E0808181608083D2
:1044500084E082BF81E0809337030C94DB21E8ED98
:10446000F0E080818E7F80831092E20008951092A8
:10447000DA001092E10008951F920F920FB60F928A
:1044800011242F933F934F935F936F937F938F9359
:104490009F93AF93BF93EF93FF938091E10082FFCF
:1044A0000BC08091E20082FF07C08091E1008B7F0A
:1044B0008093E1000E94AC248091DA0080FF1FC04D
:1044C0008091D80080FF1BC08091DA008E7F80939E
:1044D000DA008091D90080FF0DC080E189BD82E1C2
:1044E00089BD09B400FEFDCF81E0809338030E94AE
:1044F000911E05C019BC109238030E949F1E809126
:10450000E10080FF19C08091E20080FF15C080911A
:10451000E2008E7F8093E2008091E20080618093D0
:10452000E2008091D80080628093D80019BC85E0B9
:10453000809338030E94A31E8091E10084FF30C065
:104540008091E20084FF2CC080E189BD82E189BDB9
:1045500009B400FEFDCF8091D8008F7D8093D800F4
:104560008091E1008F7E8093E1008091E2008F7E58
:104570008093E2008091E20081608093E20080916C
:104580003403882311F084E007C08091E30087FDA5
:1045900002C081E001C083E0809338030E94A41E22
:1045A0008091E10083FF29C08091E20083FF25C054
:1045B0008091E100877F8093E10082E0809338035F
:1045C000109234038091E1008E7F8093E10080910E
:1045D000E2008E7F8093E2008091E2008061809310
:1045E000E20042E060E080E00E943B218091F00028
:1045F00088608093F0000E94A21EFF91EF91BF910E
:10460000AF919F918F917F916F915F914F913F916A
:104610002F910F900FBE0F901F9018951F920F9221
:104620000FB60F9211242F933F934F935F936F9385
:104630007F938F939F93AF93BF93CF93DF93EF932A
:10464000FF93C091E900CF708091EC00D82FD1701A
:1046500080FDD0E81092E9008091F000877F809380
:10466000F00078940E9452231092E9008091F000AB
:1046700088608093F000CD2BCF70C093E900FF914C
:10468000EF91DF91CF91BF91AF919F918F917F91EA
:104690006F915F914F913F912F910F900FBE0F90AF
:1046A0001F9018951F93CF93DF93CDB7DEB7AA97CE
:1046B0000FB6F894DEBF0FBECDBFE9E3F3E088E0AC
:1046C0008E0F9091F10091938E13FBCF0E94B01E3C
:1046D0008091E80083FF28C18091390390913A03CB
:1046E000492F50E04A30510508F01EC1FA01E75544
:1046F000FF4F0C94DC24803821F0823809F014C17B
:1047000008C08091350390913603992389F0826027
:104710000FC080913D038F70873008F005C18093F2
:10472000E9008091EB0085FB882780F91092E90071
:104730009091E800977F9093E8008093F1001092A9
:10474000F100D0C0282F2D7F09F0EEC0882319F08A
:10475000823061F0E9C080913B03813009F0E4C010
:10476000933009F080E0809336032EC080913B03A4
:1047700081112AC080913D038F702FEF280F2630C2
:1047800008F0D2C08093E9002091EB0020FF1CC00C
:10479000933021F48091EB00806214C09091EB0083
:1047A00090619093EB0021E030E0A90102C0440F3A
:1047B000551F8A95E2F74093EA001092EA00809133
:1047C000EB0088608093EB001092E9008091E80094
:1047D000877F8093E8000E947021A6C08111A4C049
:1047E00010913B031F778091E3008078812B8093A9
:1047F000E3008091E800877F8093E8000E947021A9
:104800008091E80080FFFCCF8091E3008068809376
:10481000E300111102C082E001C083E080933803FD
:1048200083C08058823008F07FC080913B03909114
:104830003C038C3D53E0950779F583E08A838AE257
:1048400089834FB7F894DE01139620E03EE051E2F1
:10485000E32FF0E050935700E49120FF03C0E2956E
:10486000EF703F5FEF708E2F90E0EA3010F0C79648
:1048700001C0C0968D939D932F5F243149F74FBFA0
:104880008091E800877F8093E8006AE270E0CE01C3
:1048900001960E94772015C060913D0370913E0300
:1048A000AE014F5F5F4F0E949B1FBC01892BE1F15E
:1048B0009091E800977F9093E80089819A810E9407
:1048C000DA208091E8008B778093E8002DC0803853
:1048D00059F58091E800877F8093E8008091340348
:1048E0008093F1008091E8008E7773CF81111CC016
:1048F00090913B039230C0F48091E800877F8093D1
:10490000E800909334030E94702180913403811158
:1049100006C08091E30087FD02C081E001C084E011
:10492000809338030E94A61E8091E80083FF0AC08E
:104930008091E800877F8093E8008091EB0080629F
:104940008093EB00AA960FB6F894DEBF0FBECDBFE2
:10495000DF91CF911F9108950895CF9380913803EF
:104960008823A1F0C091E900CF709091EC00892FCD
:10497000817090FD80E8C82B1092E9008091E800DA
:1049800083FD0E945223CF70C093E900CF91089518
:1049900097FB072E16F4009407D077FD09D00E94EC
:1049A000E22407FC05D03EF4909581959F4F089531
:1049B000709561957F4F0895EE0FFF1F0590F4915C
:1049C000E02D0994AA1BBB1B51E107C0AA1FBB1F06
:1049D000A617B70710F0A61BB70B881F991F5A958B
:1049E000A9F780959095BC01CD010895F999FECF66
:1049F00092BD81BDF89A992780B50895A8E1B0E0ED
:104A000042E050E00C942A25262FF999FECF92BD62
:104A100081BDF89A019700B4021639F01FBA20BD83
:104A20000FB6F894FA9AF99A0FBE08950396272FB5
:104A30000E9405250E940425252F0E940525242F6C
:104A40000C9405250196272F0E9405250C9404251A
:104A5000DC01CB01FC01F999FECF06C0F2BDE1BD3E
:104A6000F89A319600B40D9241505040B8F708952D
:044A7000F894FFCFE8
:104A74002000D50228083C0714AB1D4A1E1F1EE95E
:104A84001DAE1D01000D010D020D030D040D050DDC
:104A9400000C010C020C030C040C050C000B010BA4
:104AA400020B030B040B050B000A010A020A030A9A
:104AB400040A050A00090109020903090409050990
:104AC4000008010802080308040805080007010794
:104AD400020703070407050700060106020603068A
:104AE4000406050600050105020503050405050580
:104AF4000004010402040304040405040003010384
:104B04000203030304030503000201020202030279
:104B1400040205020001010102010301040105016F
:0C4B240000000100020003000400050076
:00000001FF
